{
  "abi": [
    {
      "type": "constructor",
      "inputs": [
        {
          "name": "_finder",
          "type": "address",
          "internalType": "address"
        },
        {
          "name": "_currency",
          "type": "address",
          "internalType": "address"
        },
        {
          "name": "_optimisticOracleV3",
          "type": "address",
          "internalType": "address"
        }
      ],
      "stateMutability": "nonpayable"
    },
    {
      "type": "function",
      "name": "FEE_PERCENTAGE",
      "inputs": [],
      "outputs": [
        {
          "name": "",
          "type": "uint256",
          "internalType": "uint256"
        }
      ],
      "stateMutability": "view"
    },
    {
      "type": "function",
      "name": "INITIAL_LIQUIDITY",
      "inputs": [],
      "outputs": [
        {
          "name": "",
          "type": "uint256",
          "internalType": "uint256"
        }
      ],
      "stateMutability": "view"
    },
    {
      "type": "function",
      "name": "allMarketIds",
      "inputs": [
        {
          "name": "",
          "type": "uint256",
          "internalType": "uint256"
        }
      ],
      "outputs": [
        {
          "name": "",
          "type": "bytes32",
          "internalType": "bytes32"
        }
      ],
      "stateMutability": "view"
    },
    {
      "type": "function",
      "name": "assertMarket",
      "inputs": [
        {
          "name": "marketId",
          "type": "bytes32",
          "internalType": "bytes32"
        },
        {
          "name": "assertedOutcome",
          "type": "string",
          "internalType": "string"
        }
      ],
      "outputs": [
        {
          "name": "assertionId",
          "type": "bytes32",
          "internalType": "bytes32"
        }
      ],
      "stateMutability": "nonpayable"
    },
    {
      "type": "function",
      "name": "assertedMarkets",
      "inputs": [
        {
          "name": "",
          "type": "bytes32",
          "internalType": "bytes32"
        }
      ],
      "outputs": [
        {
          "name": "asserter",
          "type": "address",
          "internalType": "address"
        },
        {
          "name": "marketId",
          "type": "bytes32",
          "internalType": "bytes32"
        }
      ],
      "stateMutability": "view"
    },
    {
      "type": "function",
      "name": "assertionDisputedCallback",
      "inputs": [
        {
          "name": "assertionId",
          "type": "bytes32",
          "internalType": "bytes32"
        }
      ],
      "outputs": [],
      "stateMutability": "nonpayable"
    },
    {
      "type": "function",
      "name": "assertionLiveness",
      "inputs": [],
      "outputs": [
        {
          "name": "",
          "type": "uint64",
          "internalType": "uint64"
        }
      ],
      "stateMutability": "view"
    },
    {
      "type": "function",
      "name": "assertionResolvedCallback",
      "inputs": [
        {
          "name": "assertionId",
          "type": "bytes32",
          "internalType": "bytes32"
        },
        {
          "name": "assertedTruthfully",
          "type": "bool",
          "internalType": "bool"
        }
      ],
      "outputs": [],
      "stateMutability": "nonpayable"
    },
    {
      "type": "function",
      "name": "buyOutcomeTokens",
      "inputs": [
        {
          "name": "marketId",
          "type": "bytes32",
          "internalType": "bytes32"
        },
        {
          "name": "isOutcomeOne",
          "type": "bool",
          "internalType": "bool"
        },
        {
          "name": "maxCurrencySpent",
          "type": "uint256",
          "internalType": "uint256"
        }
      ],
      "outputs": [
        {
          "name": "tokensBought",
          "type": "uint256",
          "internalType": "uint256"
        }
      ],
      "stateMutability": "nonpayable"
    },
    {
      "type": "function",
      "name": "createOutcomeTokens",
      "inputs": [
        {
          "name": "marketId",
          "type": "bytes32",
          "internalType": "bytes32"
        },
        {
          "name": "tokensToCreate",
          "type": "uint256",
          "internalType": "uint256"
        }
      ],
      "outputs": [],
      "stateMutability": "nonpayable"
    },
    {
      "type": "function",
      "name": "currency",
      "inputs": [],
      "outputs": [
        {
          "name": "",
          "type": "address",
          "internalType": "contract IERC20"
        }
      ],
      "stateMutability": "view"
    },
    {
      "type": "function",
      "name": "defaultIdentifier",
      "inputs": [],
      "outputs": [
        {
          "name": "",
          "type": "bytes32",
          "internalType": "bytes32"
        }
      ],
      "stateMutability": "view"
    },
    {
      "type": "function",
      "name": "deposit",
      "inputs": [
        {
          "name": "amount",
          "type": "uint256",
          "internalType": "uint256"
        }
      ],
      "outputs": [],
      "stateMutability": "nonpayable"
    },
    {
      "type": "function",
      "name": "finder",
      "inputs": [],
      "outputs": [
        {
          "name": "",
          "type": "address",
          "internalType": "contract FinderInterface"
        }
      ],
      "stateMutability": "view"
    },
    {
      "type": "function",
      "name": "getAllMarkets",
      "inputs": [],
      "outputs": [
        {
          "name": "",
          "type": "bytes32[]",
          "internalType": "bytes32[]"
        },
        {
          "name": "",
          "type": "tuple[]",
          "internalType": "struct PredictionMarket.Market[]",
          "components": [
            {
              "name": "resolved",
              "type": "bool",
              "internalType": "bool"
            },
            {
              "name": "assertedOutcomeId",
              "type": "bytes32",
              "internalType": "bytes32"
            },
            {
              "name": "outcome1Token",
              "type": "address",
              "internalType": "contract ExpandedIERC20"
            },
            {
              "name": "outcome2Token",
              "type": "address",
              "internalType": "contract ExpandedIERC20"
            },
            {
              "name": "reward",
              "type": "uint256",
              "internalType": "uint256"
            },
            {
              "name": "requiredBond",
              "type": "uint256",
              "internalType": "uint256"
            },
            {
              "name": "outcome1",
              "type": "bytes",
              "internalType": "bytes"
            },
            {
              "name": "outcome2",
              "type": "bytes",
              "internalType": "bytes"
            },
            {
              "name": "description",
              "type": "bytes",
              "internalType": "bytes"
            },
            {
              "name": "outcome1Pool",
              "type": "uint256",
              "internalType": "uint256"
            },
            {
              "name": "outcome2Pool",
              "type": "uint256",
              "internalType": "uint256"
            },
            {
              "name": "imageString",
              "type": "string",
              "internalType": "string"
            }
          ]
        }
      ],
      "stateMutability": "view"
    },
    {
      "type": "function",
      "name": "getMarket",
      "inputs": [
        {
          "name": "marketId",
          "type": "bytes32",
          "internalType": "bytes32"
        }
      ],
      "outputs": [
        {
          "name": "",
          "type": "tuple",
          "internalType": "struct PredictionMarket.Market",
          "components": [
            {
              "name": "resolved",
              "type": "bool",
              "internalType": "bool"
            },
            {
              "name": "assertedOutcomeId",
              "type": "bytes32",
              "internalType": "bytes32"
            },
            {
              "name": "outcome1Token",
              "type": "address",
              "internalType": "contract ExpandedIERC20"
            },
            {
              "name": "outcome2Token",
              "type": "address",
              "internalType": "contract ExpandedIERC20"
            },
            {
              "name": "reward",
              "type": "uint256",
              "internalType": "uint256"
            },
            {
              "name": "requiredBond",
              "type": "uint256",
              "internalType": "uint256"
            },
            {
              "name": "outcome1",
              "type": "bytes",
              "internalType": "bytes"
            },
            {
              "name": "outcome2",
              "type": "bytes",
              "internalType": "bytes"
            },
            {
              "name": "description",
              "type": "bytes",
              "internalType": "bytes"
            },
            {
              "name": "outcome1Pool",
              "type": "uint256",
              "internalType": "uint256"
            },
            {
              "name": "outcome2Pool",
              "type": "uint256",
              "internalType": "uint256"
            },
            {
              "name": "imageString",
              "type": "string",
              "internalType": "string"
            }
          ]
        }
      ],
      "stateMutability": "view"
    },
    {
      "type": "function",
      "name": "initializeMarket",
      "inputs": [
        {
          "name": "outcome1",
          "type": "string",
          "internalType": "string"
        },
        {
          "name": "outcome2",
          "type": "string",
          "internalType": "string"
        },
        {
          "name": "description",
          "type": "string",
          "internalType": "string"
        },
        {
          "name": "reward",
          "type": "uint256",
          "internalType": "uint256"
        },
        {
          "name": "requiredBond",
          "type": "uint256",
          "internalType": "uint256"
        },
        {
          "name": "imageString",
          "type": "string",
          "internalType": "string"
        }
      ],
      "outputs": [
        {
          "name": "marketId",
          "type": "bytes32",
          "internalType": "bytes32"
        }
      ],
      "stateMutability": "nonpayable"
    },
    {
      "type": "function",
      "name": "markets",
      "inputs": [
        {
          "name": "",
          "type": "bytes32",
          "internalType": "bytes32"
        }
      ],
      "outputs": [
        {
          "name": "resolved",
          "type": "bool",
          "internalType": "bool"
        },
        {
          "name": "assertedOutcomeId",
          "type": "bytes32",
          "internalType": "bytes32"
        },
        {
          "name": "outcome1Token",
          "type": "address",
          "internalType": "contract ExpandedIERC20"
        },
        {
          "name": "outcome2Token",
          "type": "address",
          "internalType": "contract ExpandedIERC20"
        },
        {
          "name": "reward",
          "type": "uint256",
          "internalType": "uint256"
        },
        {
          "name": "requiredBond",
          "type": "uint256",
          "internalType": "uint256"
        },
        {
          "name": "outcome1",
          "type": "bytes",
          "internalType": "bytes"
        },
        {
          "name": "outcome2",
          "type": "bytes",
          "internalType": "bytes"
        },
        {
          "name": "description",
          "type": "bytes",
          "internalType": "bytes"
        },
        {
          "name": "outcome1Pool",
          "type": "uint256",
          "internalType": "uint256"
        },
        {
          "name": "outcome2Pool",
          "type": "uint256",
          "internalType": "uint256"
        },
        {
          "name": "imageString",
          "type": "string",
          "internalType": "string"
        }
      ],
      "stateMutability": "view"
    },
    {
      "type": "function",
      "name": "oo",
      "inputs": [],
      "outputs": [
        {
          "name": "",
          "type": "address",
          "internalType": "contract OptimisticOracleV3Interface"
        }
      ],
      "stateMutability": "view"
    },
    {
      "type": "function",
      "name": "redeemOutcomeTokens",
      "inputs": [
        {
          "name": "marketId",
          "type": "bytes32",
          "internalType": "bytes32"
        },
        {
          "name": "tokensToRedeem",
          "type": "uint256",
          "internalType": "uint256"
        }
      ],
      "outputs": [],
      "stateMutability": "nonpayable"
    },
    {
      "type": "function",
      "name": "settleOutcomeTokens",
      "inputs": [
        {
          "name": "marketId",
          "type": "bytes32",
          "internalType": "bytes32"
        }
      ],
      "outputs": [
        {
          "name": "payout",
          "type": "uint256",
          "internalType": "uint256"
        }
      ],
      "stateMutability": "nonpayable"
    },
    {
      "type": "function",
      "name": "unresolvable",
      "inputs": [],
      "outputs": [
        {
          "name": "",
          "type": "bytes",
          "internalType": "bytes"
        }
      ],
      "stateMutability": "view"
    },
    {
      "type": "function",
      "name": "userBalances",
      "inputs": [
        {
          "name": "",
          "type": "address",
          "internalType": "address"
        }
      ],
      "outputs": [
        {
          "name": "",
          "type": "uint256",
          "internalType": "uint256"
        }
      ],
      "stateMutability": "view"
    },
    {
      "type": "event",
      "name": "MarketAsserted",
      "inputs": [
        {
          "name": "marketId",
          "type": "bytes32",
          "indexed": true,
          "internalType": "bytes32"
        },
        {
          "name": "assertedOutcome",
          "type": "string",
          "indexed": false,
          "internalType": "string"
        },
        {
          "name": "assertionId",
          "type": "bytes32",
          "indexed": true,
          "internalType": "bytes32"
        }
      ],
      "anonymous": false
    },
    {
      "type": "event",
      "name": "MarketInitialized",
      "inputs": [
        {
          "name": "marketId",
          "type": "bytes32",
          "indexed": true,
          "internalType": "bytes32"
        },
        {
          "name": "outcome1",
          "type": "string",
          "indexed": false,
          "internalType": "string"
        },
        {
          "name": "outcome2",
          "type": "string",
          "indexed": false,
          "internalType": "string"
        },
        {
          "name": "description",
          "type": "string",
          "indexed": false,
          "internalType": "string"
        },
        {
          "name": "outcome1Token",
          "type": "address",
          "indexed": false,
          "internalType": "address"
        },
        {
          "name": "outcome2Token",
          "type": "address",
          "indexed": false,
          "internalType": "address"
        },
        {
          "name": "reward",
          "type": "uint256",
          "indexed": false,
          "internalType": "uint256"
        },
        {
          "name": "requiredBond",
          "type": "uint256",
          "indexed": false,
          "internalType": "uint256"
        },
        {
          "name": "imageString",
          "type": "string",
          "indexed": false,
          "internalType": "string"
        }
      ],
      "anonymous": false
    },
    {
      "type": "event",
      "name": "MarketResolved",
      "inputs": [
        {
          "name": "marketId",
          "type": "bytes32",
          "indexed": true,
          "internalType": "bytes32"
        }
      ],
      "anonymous": false
    },
    {
      "type": "event",
      "name": "OutcomeTokensPurchased",
      "inputs": [
        {
          "name": "marketId",
          "type": "bytes32",
          "indexed": true,
          "internalType": "bytes32"
        },
        {
          "name": "buyer",
          "type": "address",
          "indexed": true,
          "internalType": "address"
        },
        {
          "name": "isOutcomeOne",
          "type": "bool",
          "indexed": false,
          "internalType": "bool"
        },
        {
          "name": "tokensBought",
          "type": "uint256",
          "indexed": false,
          "internalType": "uint256"
        },
        {
          "name": "currencySpent",
          "type": "uint256",
          "indexed": false,
          "internalType": "uint256"
        }
      ],
      "anonymous": false
    },
    {
      "type": "event",
      "name": "TokensCreated",
      "inputs": [
        {
          "name": "marketId",
          "type": "bytes32",
          "indexed": true,
          "internalType": "bytes32"
        },
        {
          "name": "account",
          "type": "address",
          "indexed": true,
          "internalType": "address"
        },
        {
          "name": "tokensCreated",
          "type": "uint256",
          "indexed": false,
          "internalType": "uint256"
        }
      ],
      "anonymous": false
    },
    {
      "type": "event",
      "name": "TokensRedeemed",
      "inputs": [
        {
          "name": "marketId",
          "type": "bytes32",
          "indexed": true,
          "internalType": "bytes32"
        },
        {
          "name": "account",
          "type": "address",
          "indexed": true,
          "internalType": "address"
        },
        {
          "name": "tokensRedeemed",
          "type": "uint256",
          "indexed": false,
          "internalType": "uint256"
        }
      ],
      "anonymous": false
    },
    {
      "type": "event",
      "name": "TokensSettled",
      "inputs": [
        {
          "name": "marketId",
          "type": "bytes32",
          "indexed": true,
          "internalType": "bytes32"
        },
        {
          "name": "account",
          "type": "address",
          "indexed": true,
          "internalType": "address"
        },
        {
          "name": "payout",
          "type": "uint256",
          "indexed": false,
          "internalType": "uint256"
        },
        {
          "name": "outcome1Tokens",
          "type": "uint256",
          "indexed": false,
          "internalType": "uint256"
        },
        {
          "name": "outcome2Tokens",
          "type": "uint256",
          "indexed": false,
          "internalType": "uint256"
        }
      ],
      "anonymous": false
    },
    {
      "type": "event",
      "name": "UserDeposit",
      "inputs": [
        {
          "name": "user",
          "type": "address",
          "indexed": true,
          "internalType": "address"
        },
        {
          "name": "amount",
          "type": "uint256",
          "indexed": false,
          "internalType": "uint256"
        }
      ],
      "anonymous": false
    }
  ],
  "bytecode": {
    "object": "0x6101006040523480156200001257600080fd5b506040516200595638038062005956833981016040819052620000359162000242565b6001600160a01b0383166080526200004c62000190565b604051631d1d5b3960e11b81526001600160a01b0384811660048301529190911690633a3ab67290602401602060405180830381865afa15801562000095573d6000803e3d6000fd5b505050506040513d601f19601f82011682018060405250810190620000bb91906200028c565b6200010c5760405162461bcd60e51b815260206004820152601460248201527f556e737570706f727465642063757272656e6379000000000000000000000000604482015260640160405180910390fd5b6001600160a01b0380831660a052811660c08190526040805163d509b01760e01b8152905163d509b017916004808201926020929091908290030181865afa1580156200015d573d6000803e3d6000fd5b505050506040513d601f19601f82011682018060405250810190620001839190620002b7565b60e05250620002ef915050565b6080516040516302abf57960e61b81527f436f6c6c61746572616c57686974656c6973740000000000000000000000000060048201526000916001600160a01b03169063aafd5e4090602401602060405180830381865afa158015620001fa573d6000803e3d6000fd5b505050506040513d601f19601f82011682018060405250810190620002209190620002d1565b905090565b80516001600160a01b03811681146200023d57600080fd5b919050565b6000806000606084860312156200025857600080fd5b620002638462000225565b9250620002736020850162000225565b9150620002836040850162000225565b90509250925092565b6000602082840312156200029f57600080fd5b81518015158114620002b057600080fd5b9392505050565b600060208284031215620002ca57600080fd5b5051919050565b600060208284031215620002e457600080fd5b620002b08262000225565b60805160a05160c05160e0516155cb6200038b6000396000818161041001526128f401526000818161028a015281816109b001528181610b6d015281816125a101526128950152600081816104380152818161098501528181610b4b015281816112c901528181611317015281816117bc01528181611d18015281816122140152818161265d01526128d00152600061036801526155cb6000f3fe60806040523480156200001157600080fd5b5060043610620001685760003560e01c80639d5bacfd11620000d3578063c3c95c7b1162000086578063c3c95c7b146200038a578063d410764514620003b0578063d448a4ec14620003f6578063d509b017146200040a578063e5a6b10f1462000432578063f1b156b2146200045a57600080fd5b80639d5bacfd14620002de578063acd98e2914620002f5578063b0772d0b146200030c578063b6b55f251462000326578063b75d4e24146200033d578063b9a3c84c146200036257600080fd5b806355097bf1116200012c57806355097bf11462000215578063565429a8146200022557806361b9841c146200023c5780637564912b14620002535780638921a61414620002845780639d2edf4614620002c557600080fd5b80620b46f8146200016d5780630880c65a14620001895780631ebb3bca14620001c45780632318802414620001db57806326224c6414620001f2575b600080fd5b62000176600381565b6040519081526020015b60405180910390f35b620001b56040518060400160405280600c81526020016b556e7265736f6c7661626c6560a01b81525081565b60405162000180919062002e6c565b62000176620001d536600462002e90565b62000471565b62000176620001ec36600462002ecb565b620007d0565b620001766200020336600462002ee5565b60036020526000908152604090205481565b62000176670de0b6b3a764000081565b620001766200023636600462002fbb565b620007f2565b620001766200024d36600462003006565b62000c2b565b6200026a6200026436600462002ecb565b620013cb565b604051620001809c9b9a99989796959493929190620030d2565b620002ac7f000000000000000000000000000000000000000000000000000000000000000081565b6040516001600160a01b03909116815260200162000180565b620002dc620002d63660046200317f565b62001679565b005b620002dc620002ef3660046200317f565b62001859565b620001766200030636600462002ecb565b62001a53565b6200031662001d8d565b6040516200018092919062003295565b620002dc6200033736600462002ecb565b620021a6565b620003486201518081565b60405167ffffffffffffffff909116815260200162000180565b620002ac7f000000000000000000000000000000000000000000000000000000000000000081565b620003a16200039b36600462002ecb565b6200229b565b60405162000180919062003333565b620003e6620003c136600462002ecb565b600160208190526000918252604090912080549101546001600160a01b039091169082565b6040516200018092919062003348565b620002dc6200040736600462002ecb565b50565b620001767f000000000000000000000000000000000000000000000000000000000000000081565b620002ac7f000000000000000000000000000000000000000000000000000000000000000081565b620002dc6200046b36600462003361565b62002596565b600083815260208190526040812060028101546001600160a01b0316620004b55760405162461bcd60e51b8152600401620004ac9062003394565b60405180910390fd5b805460ff1615620005095760405162461bcd60e51b815260206004820152601760248201527f4d61726b657420616c7265616479207265736f6c7665640000000000000000006044820152606401620004ac565b336000908152600360205260409020548311156200053b5760405162461bcd60e51b8152600401620004ac90620033c3565b826000856200054f5782600a015462000555565b82600901545b90506000866200056a57836009015462000570565b83600a01545b90506200057e838262003407565b6200058a83856200341d565b6200059691906200343f565b945060006103e8620005aa6003886200341d565b620005b691906200343f565b9050620005c4818762003462565b955060008611620006185760405162461bcd60e51b815260206004820152601a60248201527f496e73756666696369656e74206f757470757420616d6f756e740000000000006044820152606401620004ac565b33600090815260036020526040812080548692906200063990849062003462565b90915550508715620006e45760028501546040516340c10f1960e01b81526001600160a01b03909116906340c10f19906200067b9033908a9060040162003348565b6020604051808303816000875af11580156200069b573d6000803e3d6000fd5b505050506040513d601f19601f82011682018060405250810190620006c1919062003478565b5083856009016000828254620006d8919062003407565b909155506200077d9050565b60038501546040516340c10f1960e01b81526001600160a01b03909116906340c10f19906200071a9033908a9060040162003348565b6020604051808303816000875af11580156200073a573d6000803e3d6000fd5b505050506040513d601f19601f8201168201806040525081019062000760919062003478565b508385600a01600082825462000777919062003407565b90915550505b6040805189151581526020810188905290810185905233908a907f8bd869ea521cd34e141a0caec90f4c977cf5eca44205320f7ea213b4a6f1776b9060600160405180910390a350505050509392505050565b60028181548110620007e157600080fd5b600091825260209091200154905081565b600082815260208190526040812060028101546001600160a01b03166200082d5760405162461bcd60e51b8152600401620004ac9062003394565b82516020840120600182015415620008885760405162461bcd60e51b815260206004820152601c60248201527f417373657274696f6e20616374697665206f72207265736f6c766564000000006044820152606401620004ac565b816006016040516200089b9190620034d4565b6040518091039020811480620008ca575081600701604051620008bf9190620034d4565b604051809103902081145b8062000919575060408051808201909152600c81526b556e7265736f6c7661626c6560a01b6020909101527fffa5c42fda42ac0bea9ca62d68dcc08a4b371f06b6e71afb99dee2ce276cbe4e81145b620009675760405162461bcd60e51b815260206004820152601860248201527f496e76616c6964206173736572746564206f7574636f6d6500000000000000006044820152606401620004ac565b60018201819055604051634360af3d60e01b81526001600160a01b037f0000000000000000000000000000000000000000000000000000000000000000811660048301526000917f000000000000000000000000000000000000000000000000000000000000000090911690634360af3d90602401602060405180830381865afa158015620009fa573d6000803e3d6000fd5b505050506040513d601f19601f8201168201806040525081019062000a20919062003552565b905060008184600501541162000a37578162000a3d565b83600501545b9050600062000ae18786600801805462000a579062003498565b80601f016020809104026020016040519081016040528092919081815260200182805462000a859062003498565b801562000ad65780601f1062000aaa5761010080835404028352916020019162000ad6565b820191906000526020600020905b81548152906001019060200180831162000ab857829003601f168201915b5050505050620026f6565b3360009081526003602052604090205490915082111562000b165760405162461bcd60e51b8152600401620004ac90620033c3565b336000908152600360205260408120805484929062000b3790849062003462565b9091555062000b9390506001600160a01b037f0000000000000000000000000000000000000000000000000000000000000000167f00000000000000000000000000000000000000000000000000000000000000008462002731565b62000b9f81836200287b565b60408051808201825233815260208082018c81526000858152600192839052849020925183546001600160a01b0319166001600160a01b039091161783555191015551909650869089907fc55c01025649b2056980da18d75125fed301d8a2f7cf93d2151fab07bfe2a4929062000c18908b9062002e6c565b60405180910390a3505050505092915050565b60008087511162000c755760405162461bcd60e51b8152602060048201526013602482015272456d707479206669727374206f7574636f6d6560681b6044820152606401620004ac565b600086511162000cbf5760405162461bcd60e51b8152602060048201526014602482015273456d707479207365636f6e64206f7574636f6d6560601b6044820152606401620004ac565b858051906020012087805190602001200362000d165760405162461bcd60e51b81526020600482015260156024820152744f7574636f6d657320617265207468652073616d6560581b6044820152606401620004ac565b600085511162000d5d5760405162461bcd60e51b815260206004820152601160248201527022b6b83a3c903232b9b1b934b83a34b7b760791b6044820152606401620004ac565b438560405160200162000d729291906200356c565b60408051601f1981840301815291815281516020928301206000818152928390529120600201549091506001600160a01b03161562000dec5760405162461bcd60e51b81526020600482015260156024820152744d61726b657420616c72656164792065786973747360581b6044820152606401620004ac565b60008760405160200162000e01919062003587565b604051602081830303815290604052601260405162000e209062002d92565b62000e2d929190620035b3565b604051809103906000f08015801562000e4a573d6000803e3d6000fd5b50905060008760405160200162000e62919062003587565b604051602081830303815290604052601260405162000e819062002d92565b62000e8e929190620035f7565b604051809103906000f08015801562000eab573d6000803e3d6000fd5b50604051634c1d96ab60e11b81523060048201529091506001600160a01b0383169063983b2d5690602401600060405180830381600087803b15801562000ef157600080fd5b505af115801562000f06573d6000803e3d6000fd5b5050604051634c1d96ab60e11b81523060048201526001600160a01b038416925063983b2d569150602401600060405180830381600087803b15801562000f4c57600080fd5b505af115801562000f61573d6000803e3d6000fd5b5050604051637a231bdd60e11b81523060048201526001600160a01b038516925063f44637ba9150602401600060405180830381600087803b15801562000fa757600080fd5b505af115801562000fbc573d6000803e3d6000fd5b5050604051637a231bdd60e11b81523060048201526001600160a01b038416925063f44637ba9150602401600060405180830381600087803b1580156200100257600080fd5b505af115801562001017573d6000803e3d6000fd5b505050506040518061018001604052806000151581526020016000801b8152602001836001600160a01b03168152602001826001600160a01b031681526020018781526020018681526020018a8152602001898152602001888152602001670de0b6b3a76400008152602001670de0b6b3a764000081526020018581525060008085815260200190815260200160002060008201518160000160006101000a81548160ff0219169083151502179055506020820151816001015560408201518160020160006101000a8154816001600160a01b0302191690836001600160a01b0316021790555060608201518160030160006101000a8154816001600160a01b0302191690836001600160a01b031602179055506080820151816004015560a0820151816005015560c08201518160060190816200115691906200368d565b5060e082015160078201906200116d90826200368d565b5061010082015160088201906200118590826200368d565b506101208201516009820155610140820151600a820155610160820151600b820190620011b390826200368d565b50506040516340c10f1960e01b81526001600160a01b03841691506340c10f1990620011ee903090670de0b6b3a76400009060040162003348565b6020604051808303816000875af11580156200120e573d6000803e3d6000fd5b505050506040513d601f19601f8201168201806040525081019062001234919062003478565b506040516340c10f1960e01b81526001600160a01b038216906340c10f19906200126d903090670de0b6b3a76400009060040162003348565b6020604051808303816000875af11580156200128d573d6000803e3d6000fd5b505050506040513d601f19601f82011682018060405250810190620012b3919062003478565b508515620012f257620012f26001600160a01b037f0000000000000000000000000000000000000000000000000000000000000000163330896200296c565b6200134033306200130d670de0b6b3a764000060026200341d565b6001600160a01b037f0000000000000000000000000000000000000000000000000000000000000000169291906200296c565b600280546001810182556000919091527f405787fa12a823e0f2b7631cc41b3ba8828b3321ca811111fa75cd3aa3bb5ace0183905560405183907fc74edaa8b04de6966fc09b5d0b034705c9ff42b5e9642cc3a33f099e75932ddd90620013b7908c908c908c90889088908e908e908e906200375a565b60405180910390a250509695505050505050565b600060208190529081526040902080546001820154600283015460038401546004850154600586015460068701805460ff9097169795966001600160a01b0395861696949095169492939192620014229062003498565b80601f0160208091040260200160405190810160405280929190818152602001828054620014509062003498565b8015620014a15780601f106200147557610100808354040283529160200191620014a1565b820191906000526020600020905b8154815290600101906020018083116200148357829003601f168201915b505050505090806007018054620014b89062003498565b80601f0160208091040260200160405190810160405280929190818152602001828054620014e69062003498565b8015620015375780601f106200150b5761010080835404028352916020019162001537565b820191906000526020600020905b8154815290600101906020018083116200151957829003601f168201915b5050505050908060080180546200154e9062003498565b80601f01602080910402602001604051908101604052809291908181526020018280546200157c9062003498565b8015620015cd5780601f10620015a157610100808354040283529160200191620015cd565b820191906000526020600020905b815481529060010190602001808311620015af57829003601f168201915b50505050509080600901549080600a01549080600b018054620015f09062003498565b80601f01602080910402602001604051908101604052809291908181526020018280546200161e9062003498565b80156200166f5780601f1062001643576101008083540402835291602001916200166f565b820191906000526020600020905b8154815290600101906020018083116200165157829003601f168201915b505050505090508c565b600082815260208190526040902060028101546001600160a01b0316620016b45760405162461bcd60e51b8152600401620004ac9062003394565b600281015460405163079cc67960e41b81526001600160a01b03909116906379cc679090620016ea903390869060040162003348565b6020604051808303816000875af11580156200170a573d6000803e3d6000fd5b505050506040513d601f19601f8201168201806040525081019062001730919062003478565b50600381015460405163079cc67960e41b81526001600160a01b03909116906379cc67909062001767903390869060040162003348565b6020604051808303816000875af115801562001787573d6000803e3d6000fd5b505050506040513d601f19601f82011682018060405250810190620017ad919062003478565b50620017e46001600160a01b037f0000000000000000000000000000000000000000000000000000000000000000163384620029ac565b81816009016000828254620017fa919062003462565b925050819055508181600a01600082825462001817919062003462565b9091555050604051828152339084907f48bc562be531fa6322b3cb3a9333ca19d2e3c63c1793fcb5ce885d02d6e0226e906020015b60405180910390a3505050565b600082815260208190526040902060028101546001600160a01b0316620018945760405162461bcd60e51b8152600401620004ac9062003394565b33600090815260036020526040902054821115620018c65760405162461bcd60e51b8152600401620004ac90620033c3565b3360009081526003602052604081208054849290620018e790849062003462565b909155505060028101546040516340c10f1960e01b81526001600160a01b03909116906340c10f199062001922903390869060040162003348565b6020604051808303816000875af115801562001942573d6000803e3d6000fd5b505050506040513d601f19601f8201168201806040525081019062001968919062003478565b5060038101546040516340c10f1960e01b81526001600160a01b03909116906340c10f19906200199f903390869060040162003348565b6020604051808303816000875af1158015620019bf573d6000803e3d6000fd5b505050506040513d601f19601f82011682018060405250810190620019e5919062003478565b5081816009016000828254620019fc919062003407565b925050819055508181600a01600082825462001a19919062003407565b9091555050604051828152339084907fa1a00dd4222724941c9d085479758183928d765e55583d239c414b0f09c5da4b906020016200184c565b6000818152602081905260408120805460ff1662001aaa5760405162461bcd60e51b815260206004820152601360248201527213585c9ad95d081b9bdd081c995cdbdb1d9959606a1b6044820152606401620004ac565b60028101546040516370a0823160e01b81523360048201526000916001600160a01b0316906370a0823190602401602060405180830381865afa15801562001af6573d6000803e3d6000fd5b505050506040513d601f19601f8201168201806040525081019062001b1c919062003552565b60038301546040516370a0823160e01b81523360048201529192506000916001600160a01b03909116906370a0823190602401602060405180830381865afa15801562001b6d573d6000803e3d6000fd5b505050506040513d601f19601f8201168201806040525081019062001b93919062003552565b90508260060160405162001ba89190620034d4565b604051809103902083600101540362001bc45781935062001c10565b8260070160405162001bd79190620034d4565b604051809103902083600101540362001bf35780935062001c10565b600262001c01828462003407565b62001c0d91906200343f565b93505b600283015460405163079cc67960e41b81526001600160a01b03909116906379cc67909062001c46903390869060040162003348565b6020604051808303816000875af115801562001c66573d6000803e3d6000fd5b505050506040513d601f19601f8201168201806040525081019062001c8c919062003478565b50600383015460405163079cc67960e41b81526001600160a01b03909116906379cc67909062001cc3903390859060040162003348565b6020604051808303816000875af115801562001ce3573d6000803e3d6000fd5b505050506040513d601f19601f8201168201806040525081019062001d09919062003478565b5062001d406001600160a01b037f0000000000000000000000000000000000000000000000000000000000000000163386620029ac565b6040805185815260208101849052908101829052339086907f25ffdbe909949aba86fccc6c8a3f5d94d7ab78bc67a3cc1327908845235874eb9060600160405180910390a3505050919050565b606080600060028054905067ffffffffffffffff81111562001db35762001db362002f10565b60405190808252806020026020018201604052801562001df057816020015b62001ddc62002da0565b81526020019060019003908162001dd25790505b50905060005b60025481101562002145576000806002838154811062001e1a5762001e1a620037e6565b600091825260208083209091015483528281019390935260409182019020815161018081018352815460ff161515815260018201549381019390935260028101546001600160a01b03908116928401929092526003810154909116606083015260048101546080830152600581015460a083015260068101805460c08401919062001ea59062003498565b80601f016020809104026020016040519081016040528092919081815260200182805462001ed39062003498565b801562001f245780601f1062001ef85761010080835404028352916020019162001f24565b820191906000526020600020905b81548152906001019060200180831162001f0657829003601f168201915b5050505050815260200160078201805462001f3f9062003498565b80601f016020809104026020016040519081016040528092919081815260200182805462001f6d9062003498565b801562001fbe5780601f1062001f925761010080835404028352916020019162001fbe565b820191906000526020600020905b81548152906001019060200180831162001fa057829003601f168201915b5050505050815260200160088201805462001fd99062003498565b80601f0160208091040260200160405190810160405280929190818152602001828054620020079062003498565b8015620020585780601f106200202c5761010080835404028352916020019162002058565b820191906000526020600020905b8154815290600101906020018083116200203a57829003601f168201915b5050505050815260200160098201548152602001600a8201548152602001600b82018054620020879062003498565b80601f0160208091040260200160405190810160405280929190818152602001828054620020b59062003498565b8015620021065780601f10620020da5761010080835404028352916020019162002106565b820191906000526020600020905b815481529060010190602001808311620020e857829003601f168201915b505050505081525050828281518110620021245762002124620037e6565b602002602001018190525080806200213c90620037fc565b91505062001df6565b50600281818054806020026020016040519081016040528092919081815260200182805480156200219657602002820191906000526020600020905b81548152602001906001019080831162002181575b5050505050915092509250509091565b60008111620022065760405162461bcd60e51b815260206004820152602560248201527f4465706f73697420616d6f756e74206d75737420626520677265617465722074604482015264068616e20360dc1b6064820152608401620004ac565b6200223d6001600160a01b037f0000000000000000000000000000000000000000000000000000000000000000163330846200296c565b33600090815260036020526040812080548392906200225e90849062003407565b909155505060405181815233907f35db3d768e685509e031bae369804ca7dc6656af739e079f1d3312cadc7b19d89060200160405180910390a250565b620022a562002da0565b60008281526020818152604091829020825161018081018452815460ff161515815260018201549281019290925260028101546001600160a01b03908116938301939093526003810154909216606082015260048201546080820152600582015460a082015260068201805491929160c084019190620023259062003498565b80601f0160208091040260200160405190810160405280929190818152602001828054620023539062003498565b8015620023a45780601f106200237857610100808354040283529160200191620023a4565b820191906000526020600020905b8154815290600101906020018083116200238657829003601f168201915b50505050508152602001600782018054620023bf9062003498565b80601f0160208091040260200160405190810160405280929190818152602001828054620023ed9062003498565b80156200243e5780601f1062002412576101008083540402835291602001916200243e565b820191906000526020600020905b8154815290600101906020018083116200242057829003601f168201915b50505050508152602001600882018054620024599062003498565b80601f0160208091040260200160405190810160405280929190818152602001828054620024879062003498565b8015620024d85780601f10620024ac57610100808354040283529160200191620024d8565b820191906000526020600020905b815481529060010190602001808311620024ba57829003601f168201915b5050505050815260200160098201548152602001600a8201548152602001600b82018054620025079062003498565b80601f0160208091040260200160405190810160405280929190818152602001828054620025359062003498565b8015620025865780601f106200255a5761010080835404028352916020019162002586565b820191906000526020600020905b8154815290600101906020018083116200256857829003601f168201915b5050505050815250509050919050565b336001600160a01b037f00000000000000000000000000000000000000000000000000000000000000001614620026015760405162461bcd60e51b815260206004820152600e60248201526d139bdd08185d5d1a1bdc9a5e995960921b6044820152606401620004ac565b600082815260016020818152604080842090920154835282905290208115620026ca57805460ff191660011781556004810154156200268857600083815260016020526040902054600482015462002688916001600160a01b037f0000000000000000000000000000000000000000000000000000000000000000811692911690620029ac565b600083815260016020819052604080832090910154905190917fe9146184308c5e4b8f243047cc6f81dce88e004d7980502e123b02f887ab514491a2620026d2565b600060018201555b50506000908152600160208190526040822080546001600160a01b03191681550155565b60606200270342620029ce565b8383604051602001620027199392919062003818565b60405160208183030381529060405290505b92915050565b801580620027af5750604051636eb1769f60e11b81523060048201526001600160a01b03838116602483015284169063dd62ed3e90604401602060405180830381865afa15801562002787573d6000803e3d6000fd5b505050506040513d601f19601f82011682018060405250810190620027ad919062003552565b155b6200281c5760405162461bcd60e51b815260206004820152603660248201527f5361666545524332303a20617070726f76652066726f6d206e6f6e2d7a65726f60448201527520746f206e6f6e2d7a65726f20616c6c6f77616e636560501b6064820152608401620004ac565b620028768363095ea7b360e01b84846040516024016200283e92919062003348565b60408051601f198184030181529190526020810180516001600160e01b03166001600160e01b03199093169290921790915262002b16565b505050565b604051636457c97960e01b81526000906001600160a01b037f00000000000000000000000000000000000000000000000000000000000000001690636457c979906200291f90869033903090879062015180907f0000000000000000000000000000000000000000000000000000000000000000908b907f0000000000000000000000000000000000000000000000000000000000000000908590600401620038f5565b6020604051808303816000875af11580156200293f573d6000803e3d6000fd5b505050506040513d601f19601f8201168201806040525081019062002965919062003552565b9392505050565b6040516001600160a01b0380851660248301528316604482015260648101829052620029a69085906323b872dd60e01b906084016200283e565b50505050565b620028768363a9059cbb60e01b84846040516024016200283e92919062003348565b606081600003620029f65750506040805180820190915260018152600360fc1b602082015290565b8160005b811562002a26578062002a0d81620037fc565b915062002a1e9050600a836200343f565b9150620029fa565b60008167ffffffffffffffff81111562002a445762002a4462002f10565b6040519080825280601f01601f19166020018201604052801562002a6f576020820181803683370190505b509050815b851562002b0d5762002a8860018262003462565b9050600062002a99600a886200343f565b62002aa690600a6200341d565b62002ab2908862003462565b62002abf90603062003965565b905060008160f81b90508084848151811062002adf5762002adf620037e6565b60200101906001600160f81b031916908160001a90535062002b03600a896200343f565b9750505062002a74565b50949350505050565b600062002b6d826040518060400160405280602081526020017f5361666545524332303a206c6f772d6c6576656c2063616c6c206661696c6564815250856001600160a01b031662002bef9092919063ffffffff16565b80519091501562002876578080602001905181019062002b8e919062003478565b620028765760405162461bcd60e51b815260206004820152602a60248201527f5361666545524332303a204552433230206f7065726174696f6e20646964206e6044820152691bdd081cdd58d8d9595960b21b6064820152608401620004ac565b606062002c00848460008562002c08565b949350505050565b60608247101562002c6b5760405162461bcd60e51b815260206004820152602660248201527f416464726573733a20696e73756666696369656e742062616c616e636520666f6044820152651c8818d85b1b60d21b6064820152608401620004ac565b600080866001600160a01b0316858760405162002c89919062003981565b60006040518083038185875af1925050503d806000811462002cc8576040519150601f19603f3d011682016040523d82523d6000602084013e62002ccd565b606091505b509150915062002ce08783838762002ceb565b979650505050505050565b6060831562002d5f57825160000362002d57576001600160a01b0385163b62002d575760405162461bcd60e51b815260206004820152601d60248201527f416464726573733a2063616c6c20746f206e6f6e2d636f6e74726163740000006044820152606401620004ac565b508162002c00565b62002c00838381511562002d765781518083602001fd5b8060405162461bcd60e51b8152600401620004ac919062002e6c565b611bf680620039a083390190565b6040518061018001604052806000151581526020016000801916815260200160006001600160a01b0316815260200160006001600160a01b0316815260200160008152602001600081526020016060815260200160608152602001606081526020016000815260200160008152602001606081525090565b60005b8381101562002e3557818101518382015260200162002e1b565b50506000910152565b6000815180845262002e5881602086016020860162002e18565b601f01601f19169290920160200192915050565b60208152600062002965602083018462002e3e565b80151581146200040757600080fd5b60008060006060848603121562002ea657600080fd5b83359250602084013562002eba8162002e81565b929592945050506040919091013590565b60006020828403121562002ede57600080fd5b5035919050565b60006020828403121562002ef857600080fd5b81356001600160a01b03811681146200296557600080fd5b634e487b7160e01b600052604160045260246000fd5b600082601f83011262002f3857600080fd5b813567ffffffffffffffff8082111562002f565762002f5662002f10565b604051601f8301601f19908116603f0116810190828211818310171562002f815762002f8162002f10565b8160405283815286602085880101111562002f9b57600080fd5b836020870160208301376000602085830101528094505050505092915050565b6000806040838503121562002fcf57600080fd5b82359150602083013567ffffffffffffffff81111562002fee57600080fd5b62002ffc8582860162002f26565b9150509250929050565b60008060008060008060c087890312156200302057600080fd5b863567ffffffffffffffff808211156200303957600080fd5b620030478a838b0162002f26565b975060208901359150808211156200305e57600080fd5b6200306c8a838b0162002f26565b965060408901359150808211156200308357600080fd5b620030918a838b0162002f26565b9550606089013594506080890135935060a0890135915080821115620030b657600080fd5b50620030c589828a0162002f26565b9150509295509295509295565b8c15158152602081018c90526001600160a01b038b811660408301528a16606082015260006101808a60808401528960a08401528060c08401526200311a8184018a62002e3e565b905082810360e084015262003130818962002e3e565b905082810361010084015262003147818862002e3e565b905085610120840152846101408401528281036101608401526200316c818562002e3e565b9f9e505050505050505050505050505050565b600080604083850312156200319357600080fd5b50508035926020909101359150565b8051151582526000610180602083015160208501526040830151620031d260408601826001600160a01b03169052565b506060830151620031ee60608601826001600160a01b03169052565b506080830151608085015260a083015160a085015260c08301518160c08601526200321c8286018262002e3e565b91505060e083015184820360e086015262003238828262002e3e565b915050610100808401518583038287015262003255838262002e3e565b9250505061012080840151818601525061014080840151818601525061016080840151858303828701526200328b838262002e3e565b9695505050505050565b604080825283519082018190526000906020906060840190828701845b82811015620032d057815184529284019290840190600101620032b2565b50505083810382850152845180825282820190600581901b8301840187850160005b838110156200332457601f1986840301855262003311838351620031a2565b94870194925090860190600101620032f2565b50909998505050505050505050565b602081526000620029656020830184620031a2565b6001600160a01b03929092168252602082015260400190565b600080604083850312156200337557600080fd5b823591506020830135620033898162002e81565b809150509250929050565b60208082526015908201527413585c9ad95d08191bd95cc81b9bdd08195e1a5cdd605a1b604082015260600190565b602080825260149082015273496e73756666696369656e742062616c616e636560601b604082015260600190565b634e487b7160e01b600052601160045260246000fd5b808201808211156200272b576200272b620033f1565b60008160001904831182151516156200343a576200343a620033f1565b500290565b6000826200345d57634e487b7160e01b600052601260045260246000fd5b500490565b818103818111156200272b576200272b620033f1565b6000602082840312156200348b57600080fd5b8151620029658162002e81565b600181811c90821680620034ad57607f821691505b602082108103620034ce57634e487b7160e01b600052602260045260246000fd5b50919050565b6000808354620034e48162003498565b60018281168015620034ff5760018114620035155762003546565b60ff198416875282151583028701945062003546565b8760005260208060002060005b858110156200353d5781548a82015290840190820162003522565b50505082870194505b50929695505050505050565b6000602082840312156200356557600080fd5b5051919050565b82815260406020820152600062002c00604083018462002e3e565b600082516200359b81846020870162002e18565b65102a37b5b2b760d11b920191825250600601919050565b606081526000620035c8606083018562002e3e565b8281036020840152600381526213cc5560ea1b60208201526040810191505060ff831660408301529392505050565b6060815260006200360c606083018562002e3e565b8281036020840152600381526213cc9560ea1b60208201526040810191505060ff831660408301529392505050565b601f8211156200287657600081815260208120601f850160051c81016020861015620036645750805b601f850160051c820191505b81811015620036855782815560010162003670565b505050505050565b815167ffffffffffffffff811115620036aa57620036aa62002f10565b620036c281620036bb845462003498565b846200363b565b602080601f831160018114620036fa5760008415620036e15750858301515b600019600386901b1c1916600185901b17855562003685565b600085815260208120601f198616915b828110156200372b578886015182559484019460019091019084016200370a565b50858210156200374a5787850151600019600388901b60f8161c191681555b5050505050600190811b01905550565b6000610100808352620037708184018c62002e3e565b9050828103602084015262003786818b62002e3e565b905082810360408401526200379c818a62002e3e565b6001600160a01b0389811660608601528816608085015260a0840187905260c0840186905283810360e08501529050620037d7818562002e3e565b9b9a5050505050505050505050565b634e487b7160e01b600052603260045260246000fd5b600060018201620038115762003811620033f1565b5060010190565b7f4173206f6620617373657274696f6e2074696d657374616d70200000000000008152600084516200385281601a85016020890162002e18565b7f2c20746865206465736372696265642070726564696374696f6e206d61726b65601a918401918201526d03a1037baba31b7b6b29034b99d160951b603a8201528451620038a881604884016020890162002e18565b7f2e20546865206d61726b6574206465736372697074696f6e2069733a20000000604892909101918201528351620038e881606584016020880162002e18565b0160650195945050505050565b60006101208083526200390b8184018d62002e3e565b6001600160a01b039b8c166020850152998b1660408401525050958816606087015267ffffffffffffffff9490941660808601529190951660a084015260c083019490945260e08201939093526101000191909152919050565b60ff81811683821601908111156200272b576200272b620033f1565b600082516200399581846020870162002e18565b919091019291505056fe60806040523480156200001157600080fd5b5060405162001bf638038062001bf6833981016040819052620000349162000563565b8282600362000044838262000676565b50600462000053828262000676565b50506006805460ff191660ff8416179055506200007360008033620000a5565b6200009060015b60408051600080825260208201909252620001f5565b6200009c60026200007a565b50505062000796565b826000808281526005602052604090206001015460ff166002811115620000d057620000d062000742565b14620001235760405162461bcd60e51b815260206004820152601e60248201527f43616e6e6f74207573652061207072652d6578697374696e6720726f6c65000060448201526064015b60405180910390fd5b60008481526005602052604090206001808201805460ff1916828002179055508381556200016160028201846200033b602090811b62000a3717901c565b60008481526005602052604081206001015460ff1660028111156200018a576200018a62000742565b03620001ee5760405162461bcd60e51b815260206004820152603c602482015260008051602062001bd683398151915260448201527f20746f206d616e61676520616e206578636c757369766520726f6c650000000060648201526084016200011a565b5050505050565b826000808281526005602052604090206001015460ff16600281111562000220576200022062000742565b146200026f5760405162461bcd60e51b815260206004820152601e60248201527f43616e6e6f74207573652061207072652d6578697374696e6720726f6c65000060448201526064016200011a565b600084815260056020908152604090912060018101805460ff1916600217905584815590620002ae906003830190859062000a416200034b821b17901c565b60008481526005602052604081206001015460ff166002811115620002d757620002d762000742565b03620001ee5760405162461bcd60e51b8152602060048201526038602482015260008051602062001bd683398151915260448201527f20746f206d616e61676520612073686172656420726f6c65000000000000000060648201526084016200011a565b620003478282620003a0565b5050565b60005b81518110156200039b57620003868383838151811062000372576200037262000758565b60200260200101516200042160201b60201c565b8062000392816200076e565b9150506200034e565b505050565b6001600160a01b038116620004045760405162461bcd60e51b815260206004820152602360248201527f43616e6e6f742073657420616e206578636c757369766520726f6c6520746f2060448201526203078360ec1b60648201526084016200011a565b81546001600160a01b0319166001600160a01b0391909116179055565b6001600160a01b038116620004795760405162461bcd60e51b815260206004820152601f60248201527f43616e6e6f74206164642030783020746f20612073686172656420726f6c650060448201526064016200011a565b6001600160a01b0316600090815260209190915260409020805460ff19166001179055565b634e487b7160e01b600052604160045260246000fd5b600082601f830112620004c657600080fd5b81516001600160401b0380821115620004e357620004e36200049e565b604051601f8301601f19908116603f011681019082821181831017156200050e576200050e6200049e565b816040528381526020925086838588010111156200052b57600080fd5b600091505b838210156200054f578582018301518183018401529082019062000530565b600093810190920192909252949350505050565b6000806000606084860312156200057957600080fd5b83516001600160401b03808211156200059157600080fd5b6200059f87838801620004b4565b94506020860151915080821115620005b657600080fd5b50620005c586828701620004b4565b925050604084015160ff81168114620005dd57600080fd5b809150509250925092565b600181811c90821680620005fd57607f821691505b6020821081036200061e57634e487b7160e01b600052602260045260246000fd5b50919050565b601f8211156200039b57600081815260208120601f850160051c810160208610156200064d5750805b601f850160051c820191505b818110156200066e5782815560010162000659565b505050505050565b81516001600160401b038111156200069257620006926200049e565b620006aa81620006a38454620005e8565b8462000624565b602080601f831160018114620006e25760008415620006c95750858301515b600019600386901b1c1916600185901b1785556200066e565b600085815260208120601f198616915b828110156200071357888601518255948401946001909101908401620006f2565b5085821015620007325787850151600019600388901b60f8161c191681555b5050505050600190811b01905550565b634e487b7160e01b600052602160045260246000fd5b634e487b7160e01b600052603260045260246000fd5b6000600182016200078f57634e487b7160e01b600052601160045260246000fd5b5060010190565b61143080620007a66000396000f3fe608060405234801561001057600080fd5b506004361061014d5760003560e01c806374d0a676116100c3578063a9059cbb1161007c578063a9059cbb146102be578063aaa14ca3146102d1578063ab3545e5146102e4578063d97c05be1461030f578063dd62ed3e14610322578063f44637ba1461033557600080fd5b806374d0a6761461025757806379cc67901461026a5780637cdc1cb91461027d57806395d89b4114610290578063983b2d5614610298578063a457c2d7146102ab57600080fd5b8063395093511161011557806339509351146101cd57806340c10f19146101e057806342966c68146101f35780636be7658b1461020857806370a082311461021b57806373cc802a1461024457600080fd5b806306fdde0314610152578063095ea7b31461017057806318160ddd1461019357806323b872dd146101a5578063313ce567146101b8575b600080fd5b61015a610348565b60405161016791906110d6565b60405180910390f35b61018361017e366004611140565b6103da565b6040519015158152602001610167565b6002545b604051908152602001610167565b6101836101b336600461116a565b6103f4565b60065460405160ff9091168152602001610167565b6101836101db366004611140565b610418565b6101836101ee366004611140565b61043a565b6102066102013660046111a6565b610477565b005b6102066102163660046111bf565b6104ad565b6101976102293660046111eb565b6001600160a01b031660009081526020819052604090205490565b6102066102523660046111eb565b610583565b6102066102653660046111bf565b610591565b610183610278366004611140565b610667565b61018361028b3660046111bf565b61069b565b61015a610760565b6102066102a63660046111eb565b61076f565b6101836102b9366004611140565b61077b565b6101836102cc366004611140565b6107f6565b6102066102df3660046111a6565b610804565b6102f76102f23660046111a6565b6108c0565b6040516001600160a01b039091168152602001610167565b61020661031d3660046111bf565b61092c565b61019761033036600461120d565b610a02565b6102066103433660046111eb565b610a2d565b60606003805461035790611237565b80601f016020809104026020016040519081016040528092919081815260200182805461038390611237565b80156103d05780601f106103a5576101008083540402835291602001916103d0565b820191906000526020600020905b8154815290600101906020018083116103b357829003601f168201915b5050505050905090565b6000336103e8818585610a87565b60019150505b92915050565b600033610402858285610bab565b61040d858585610c25565b506001949350505050565b6000336103e881858561042b8383610a02565b6104359190611281565b610a87565b60006001610448813361069b565b61046d5760405162461bcd60e51b8152600401610464906112aa565b60405180910390fd5b6103e88484610dc9565b6002610483813361069b565b61049f5760405162461bcd60e51b8152600401610464906112aa565b6104a93383610e88565b5050565b81600260008281526005602052604090206001015460ff1660028111156104d6576104d6611294565b146104f35760405162461bcd60e51b8152600401610464906112ec565b600083815260056020526040902054839061050e903361069b565b61052a5760405162461bcd60e51b815260040161046490611338565b60008481526005602052604090206105459060030184610fba565b60405133906001600160a01b0385169086907feb3e33034c392e69263b04ec0fa376dc12784a41b6676c7f31b936cbc0fbb5af90600090a450505050565b61058e60008261092c565b50565b81600260008281526005602052604090206001015460ff1660028111156105ba576105ba611294565b146105d75760405162461bcd60e51b8152600401610464906112ec565b60008381526005602052604090205483906105f2903361069b565b61060e5760405162461bcd60e51b815260040161046490611338565b60008481526005602052604090206106299060030184610fdc565b60405133906001600160a01b0385169086907f63502af7324ff6db91ab38f8236a648727d9385ea6c782073dd4882d8a61a48f90600090a450505050565b60006002610675813361069b565b6106915760405162461bcd60e51b8152600401610464906112aa565b6103e88484610e88565b600082815260056020526040812060018082015460ff1660028111156106c3576106c3611294565b036106e45760028101546001600160a01b038481169116145b9150506103ee565b6002600182015460ff1660028111156106ff576106ff611294565b03610727576001600160a01b038316600090815260038201602052604090205460ff166106dc565b60405162461bcd60e51b815260206004820152600e60248201526d125b9d985b1a59081c9bdb19525960921b6044820152606401610464565b60606004805461035790611237565b61058e60015b82610591565b600033816107898286610a02565b9050838110156107e95760405162461bcd60e51b815260206004820152602560248201527f45524332303a2064656372656173656420616c6c6f77616e63652062656c6f77604482015264207a65726f60d81b6064820152608401610464565b61040d8286868403610a87565b6000336103e8818585610c25565b80600260008281526005602052604090206001015460ff16600281111561082d5761082d611294565b1461084a5760405162461bcd60e51b8152600401610464906112ec565b81610855813361069b565b6108715760405162461bcd60e51b8152600401610464906112aa565b600083815260056020526040902061088c9060030133610fba565b6040513390819085907feb3e33034c392e69263b04ec0fa376dc12784a41b6676c7f31b936cbc0fbb5af90600090a4505050565b600081600160008281526005602052604090206001015460ff1660028111156108eb576108eb611294565b146109085760405162461bcd60e51b81526004016104649061137c565b6000838152600560205260409020600201546001600160a01b031691505b50919050565b81600160008281526005602052604090206001015460ff16600281111561095557610955611294565b146109725760405162461bcd60e51b81526004016104649061137c565b600083815260056020526040902054839061098d903361069b565b6109a95760405162461bcd60e51b815260040161046490611338565b60008481526005602052604090206109c49060020184611057565b60405133906001600160a01b0385169086907f3b855c56b409b671c7112789d022675eb639d0bcb8896f1b6197c132f799e74690600090a450505050565b6001600160a01b03918216600090815260016020908152604080832093909416825291909152205490565b61058e6002610775565b6104a98282611057565b60005b8151811015610a8257610a7083838381518110610a6357610a636113cb565b6020026020010151610fdc565b80610a7a816113e1565b915050610a44565b505050565b6001600160a01b038316610ae95760405162461bcd60e51b8152602060048201526024808201527f45524332303a20617070726f76652066726f6d20746865207a65726f206164646044820152637265737360e01b6064820152608401610464565b6001600160a01b038216610b4a5760405162461bcd60e51b815260206004820152602260248201527f45524332303a20617070726f766520746f20746865207a65726f206164647265604482015261737360f01b6064820152608401610464565b6001600160a01b0383811660008181526001602090815260408083209487168084529482529182902085905590518481527f8c5be1e5ebec7d5bd14f71427d1e84f3dd0314c0f7b2291e5b200ac8c7c3b925910160405180910390a3505050565b6000610bb78484610a02565b90506000198114610c1f5781811015610c125760405162461bcd60e51b815260206004820152601d60248201527f45524332303a20696e73756666696369656e7420616c6c6f77616e63650000006044820152606401610464565b610c1f8484848403610a87565b50505050565b6001600160a01b038316610c895760405162461bcd60e51b815260206004820152602560248201527f45524332303a207472616e736665722066726f6d20746865207a65726f206164604482015264647265737360d81b6064820152608401610464565b6001600160a01b038216610ceb5760405162461bcd60e51b815260206004820152602360248201527f45524332303a207472616e7366657220746f20746865207a65726f206164647260448201526265737360e81b6064820152608401610464565b6001600160a01b03831660009081526020819052604090205481811015610d635760405162461bcd60e51b815260206004820152602660248201527f45524332303a207472616e7366657220616d6f756e7420657863656564732062604482015265616c616e636560d01b6064820152608401610464565b6001600160a01b03848116600081815260208181526040808320878703905593871680835291849020805487019055925185815290927fddf252ad1be2c89b69c2b068fc378daa952ba7f163c4a11628f55a4df523b3ef910160405180910390a3610c1f565b6001600160a01b038216610e1f5760405162461bcd60e51b815260206004820152601f60248201527f45524332303a206d696e7420746f20746865207a65726f2061646472657373006044820152606401610464565b8060026000828254610e319190611281565b90915550506001600160a01b038216600081815260208181526040808320805486019055518481527fddf252ad1be2c89b69c2b068fc378daa952ba7f163c4a11628f55a4df523b3ef910160405180910390a35050565b6001600160a01b038216610ee85760405162461bcd60e51b815260206004820152602160248201527f45524332303a206275726e2066726f6d20746865207a65726f206164647265736044820152607360f81b6064820152608401610464565b6001600160a01b03821660009081526020819052604090205481811015610f5c5760405162461bcd60e51b815260206004820152602260248201527f45524332303a206275726e20616d6f756e7420657863656564732062616c616e604482015261636560f01b6064820152608401610464565b6001600160a01b0383166000818152602081815260408083208686039055600280548790039055518581529192917fddf252ad1be2c89b69c2b068fc378daa952ba7f163c4a11628f55a4df523b3ef910160405180910390a3505050565b6001600160a01b0316600090815260209190915260409020805460ff19169055565b6001600160a01b0381166110325760405162461bcd60e51b815260206004820152601f60248201527f43616e6e6f74206164642030783020746f20612073686172656420726f6c65006044820152606401610464565b6001600160a01b0316600090815260209190915260409020805460ff19166001179055565b6001600160a01b0381166110b95760405162461bcd60e51b815260206004820152602360248201527f43616e6e6f742073657420616e206578636c757369766520726f6c6520746f2060448201526203078360ec1b6064820152608401610464565b81546001600160a01b0319166001600160a01b0391909116179055565b600060208083528351808285015260005b81811015611103578581018301518582016040015282016110e7565b506000604082860101526040601f19601f8301168501019250505092915050565b80356001600160a01b038116811461113b57600080fd5b919050565b6000806040838503121561115357600080fd5b61115c83611124565b946020939093013593505050565b60008060006060848603121561117f57600080fd5b61118884611124565b925061119660208501611124565b9150604084013590509250925092565b6000602082840312156111b857600080fd5b5035919050565b600080604083850312156111d257600080fd5b823591506111e260208401611124565b90509250929050565b6000602082840312156111fd57600080fd5b61120682611124565b9392505050565b6000806040838503121561122057600080fd5b61122983611124565b91506111e260208401611124565b600181811c9082168061124b57607f821691505b60208210810361092657634e487b7160e01b600052602260045260246000fd5b634e487b7160e01b600052601160045260246000fd5b808201808211156103ee576103ee61126b565b634e487b7160e01b600052602160045260246000fd5b60208082526022908201527f53656e64657220646f6573206e6f7420686f6c6420726571756972656420726f6040820152616c6560f01b606082015260800190565b6020808252602c908201527f4d7573742062652063616c6c6564206f6e20616e20696e697469616c697a656460408201526b2053686172656420726f6c6560a01b606082015260800190565b60208082526024908201527f43616e206f6e6c792062652063616c6c6564206279206120726f6c65206d616e60408201526330b3b2b960e11b606082015260800190565b6020808252602f908201527f4d7573742062652063616c6c6564206f6e20616e20696e697469616c697a656460408201526e204578636c757369766520726f6c6560881b606082015260800190565b634e487b7160e01b600052603260045260246000fd5b6000600182016113f3576113f361126b565b506001019056fea264697066735822122011644e77c362e6d825ab2804b196fef8de52c59ac6104626b1f75ab81c07312764736f6c63430008100033417474656d7074656420746f2075736520616e20696e76616c696420726f6c65a264697066735822122054e295bbc16104c5f699e7ed9ffd3b618b2564212b82150a7ea1527d10c7660d64736f6c63430008100033",
    "linkReferences": {}
  },
  "methodIdentifiers": {
    "FEE_PERCENTAGE()": "000b46f8",
    "INITIAL_LIQUIDITY()": "55097bf1",
    "allMarketIds(uint256)": "23188024",
    "assertMarket(bytes32,string)": "565429a8",
    "assertedMarkets(bytes32)": "d4107645",
    "assertionDisputedCallback(bytes32)": "d448a4ec",
    "assertionLiveness()": "b75d4e24",
    "assertionResolvedCallback(bytes32,bool)": "f1b156b2",
    "buyOutcomeTokens(bytes32,bool,uint256)": "1ebb3bca",
    "createOutcomeTokens(bytes32,uint256)": "9d5bacfd",
    "currency()": "e5a6b10f",
    "defaultIdentifier()": "d509b017",
    "deposit(uint256)": "b6b55f25",
    "finder()": "b9a3c84c",
    "getAllMarkets()": "b0772d0b",
    "getMarket(bytes32)": "c3c95c7b",
    "initializeMarket(string,string,string,uint256,uint256,string)": "61b9841c",
    "markets(bytes32)": "7564912b",
    "oo()": "8921a614",
    "redeemOutcomeTokens(bytes32,uint256)": "9d2edf46",
    "settleOutcomeTokens(bytes32)": "acd98e29",
    "unresolvable()": "0880c65a",
    "userBalances(address)": "26224c64"
  },
  "id": 59
}