{
  "abi": [
    {
      "type": "constructor",
      "inputs": [
        {
          "name": "_finder",
          "type": "address",
          "internalType": "address"
        },
        {
          "name": "_currency",
          "type": "address",
          "internalType": "address"
        },
        {
          "name": "_optimisticOracleV3",
          "type": "address",
          "internalType": "address"
        }
      ],
      "stateMutability": "nonpayable"
    },
    {
      "type": "function",
      "name": "allMarketIds",
      "inputs": [
        {
          "name": "",
          "type": "uint256",
          "internalType": "uint256"
        }
      ],
      "outputs": [
        {
          "name": "",
          "type": "bytes32",
          "internalType": "bytes32"
        }
      ],
      "stateMutability": "view"
    },
    {
      "type": "function",
      "name": "assertMarket",
      "inputs": [
        {
          "name": "marketId",
          "type": "bytes32",
          "internalType": "bytes32"
        },
        {
          "name": "assertedOutcome",
          "type": "string",
          "internalType": "string"
        }
      ],
      "outputs": [
        {
          "name": "assertionId",
          "type": "bytes32",
          "internalType": "bytes32"
        }
      ],
      "stateMutability": "nonpayable"
    },
    {
      "type": "function",
      "name": "assertedMarkets",
      "inputs": [
        {
          "name": "",
          "type": "bytes32",
          "internalType": "bytes32"
        }
      ],
      "outputs": [
        {
          "name": "asserter",
          "type": "address",
          "internalType": "address"
        },
        {
          "name": "marketId",
          "type": "bytes32",
          "internalType": "bytes32"
        }
      ],
      "stateMutability": "view"
    },
    {
      "type": "function",
      "name": "assertionDisputedCallback",
      "inputs": [
        {
          "name": "assertionId",
          "type": "bytes32",
          "internalType": "bytes32"
        }
      ],
      "outputs": [],
      "stateMutability": "nonpayable"
    },
    {
      "type": "function",
      "name": "assertionLiveness",
      "inputs": [],
      "outputs": [
        {
          "name": "",
          "type": "uint64",
          "internalType": "uint64"
        }
      ],
      "stateMutability": "view"
    },
    {
      "type": "function",
      "name": "assertionResolvedCallback",
      "inputs": [
        {
          "name": "assertionId",
          "type": "bytes32",
          "internalType": "bytes32"
        },
        {
          "name": "assertedTruthfully",
          "type": "bool",
          "internalType": "bool"
        }
      ],
      "outputs": [],
      "stateMutability": "nonpayable"
    },
    {
      "type": "function",
      "name": "createOutcomeTokens",
      "inputs": [
        {
          "name": "marketId",
          "type": "bytes32",
          "internalType": "bytes32"
        },
        {
          "name": "tokensToCreate",
          "type": "uint256",
          "internalType": "uint256"
        }
      ],
      "outputs": [],
      "stateMutability": "nonpayable"
    },
    {
      "type": "function",
      "name": "currency",
      "inputs": [],
      "outputs": [
        {
          "name": "",
          "type": "address",
          "internalType": "contract IERC20"
        }
      ],
      "stateMutability": "view"
    },
    {
      "type": "function",
      "name": "defaultIdentifier",
      "inputs": [],
      "outputs": [
        {
          "name": "",
          "type": "bytes32",
          "internalType": "bytes32"
        }
      ],
      "stateMutability": "view"
    },
    {
      "type": "function",
      "name": "finder",
      "inputs": [],
      "outputs": [
        {
          "name": "",
          "type": "address",
          "internalType": "contract FinderInterface"
        }
      ],
      "stateMutability": "view"
    },
    {
      "type": "function",
      "name": "getAllMarkets",
      "inputs": [],
      "outputs": [
        {
          "name": "",
          "type": "bytes32[]",
          "internalType": "bytes32[]"
        },
        {
          "name": "",
          "type": "tuple[]",
          "internalType": "struct PredictionMarket.Market[]",
          "components": [
            {
              "name": "resolved",
              "type": "bool",
              "internalType": "bool"
            },
            {
              "name": "assertedOutcomeId",
              "type": "bytes32",
              "internalType": "bytes32"
            },
            {
              "name": "outcome1Token",
              "type": "address",
              "internalType": "contract ExpandedIERC20"
            },
            {
              "name": "outcome2Token",
              "type": "address",
              "internalType": "contract ExpandedIERC20"
            },
            {
              "name": "reward",
              "type": "uint256",
              "internalType": "uint256"
            },
            {
              "name": "requiredBond",
              "type": "uint256",
              "internalType": "uint256"
            },
            {
              "name": "outcome1",
              "type": "bytes",
              "internalType": "bytes"
            },
            {
              "name": "outcome2",
              "type": "bytes",
              "internalType": "bytes"
            },
            {
              "name": "description",
              "type": "bytes",
              "internalType": "bytes"
            }
          ]
        }
      ],
      "stateMutability": "view"
    },
    {
      "type": "function",
      "name": "getMarket",
      "inputs": [
        {
          "name": "marketId",
          "type": "bytes32",
          "internalType": "bytes32"
        }
      ],
      "outputs": [
        {
          "name": "",
          "type": "tuple",
          "internalType": "struct PredictionMarket.Market",
          "components": [
            {
              "name": "resolved",
              "type": "bool",
              "internalType": "bool"
            },
            {
              "name": "assertedOutcomeId",
              "type": "bytes32",
              "internalType": "bytes32"
            },
            {
              "name": "outcome1Token",
              "type": "address",
              "internalType": "contract ExpandedIERC20"
            },
            {
              "name": "outcome2Token",
              "type": "address",
              "internalType": "contract ExpandedIERC20"
            },
            {
              "name": "reward",
              "type": "uint256",
              "internalType": "uint256"
            },
            {
              "name": "requiredBond",
              "type": "uint256",
              "internalType": "uint256"
            },
            {
              "name": "outcome1",
              "type": "bytes",
              "internalType": "bytes"
            },
            {
              "name": "outcome2",
              "type": "bytes",
              "internalType": "bytes"
            },
            {
              "name": "description",
              "type": "bytes",
              "internalType": "bytes"
            }
          ]
        }
      ],
      "stateMutability": "view"
    },
    {
      "type": "function",
      "name": "initializeMarket",
      "inputs": [
        {
          "name": "outcome1",
          "type": "string",
          "internalType": "string"
        },
        {
          "name": "outcome2",
          "type": "string",
          "internalType": "string"
        },
        {
          "name": "description",
          "type": "string",
          "internalType": "string"
        },
        {
          "name": "reward",
          "type": "uint256",
          "internalType": "uint256"
        },
        {
          "name": "requiredBond",
          "type": "uint256",
          "internalType": "uint256"
        }
      ],
      "outputs": [
        {
          "name": "marketId",
          "type": "bytes32",
          "internalType": "bytes32"
        }
      ],
      "stateMutability": "nonpayable"
    },
    {
      "type": "function",
      "name": "markets",
      "inputs": [
        {
          "name": "",
          "type": "bytes32",
          "internalType": "bytes32"
        }
      ],
      "outputs": [
        {
          "name": "resolved",
          "type": "bool",
          "internalType": "bool"
        },
        {
          "name": "assertedOutcomeId",
          "type": "bytes32",
          "internalType": "bytes32"
        },
        {
          "name": "outcome1Token",
          "type": "address",
          "internalType": "contract ExpandedIERC20"
        },
        {
          "name": "outcome2Token",
          "type": "address",
          "internalType": "contract ExpandedIERC20"
        },
        {
          "name": "reward",
          "type": "uint256",
          "internalType": "uint256"
        },
        {
          "name": "requiredBond",
          "type": "uint256",
          "internalType": "uint256"
        },
        {
          "name": "outcome1",
          "type": "bytes",
          "internalType": "bytes"
        },
        {
          "name": "outcome2",
          "type": "bytes",
          "internalType": "bytes"
        },
        {
          "name": "description",
          "type": "bytes",
          "internalType": "bytes"
        }
      ],
      "stateMutability": "view"
    },
    {
      "type": "function",
      "name": "oo",
      "inputs": [],
      "outputs": [
        {
          "name": "",
          "type": "address",
          "internalType": "contract OptimisticOracleV3Interface"
        }
      ],
      "stateMutability": "view"
    },
    {
      "type": "function",
      "name": "redeemOutcomeTokens",
      "inputs": [
        {
          "name": "marketId",
          "type": "bytes32",
          "internalType": "bytes32"
        },
        {
          "name": "tokensToRedeem",
          "type": "uint256",
          "internalType": "uint256"
        }
      ],
      "outputs": [],
      "stateMutability": "nonpayable"
    },
    {
      "type": "function",
      "name": "settleOutcomeTokens",
      "inputs": [
        {
          "name": "marketId",
          "type": "bytes32",
          "internalType": "bytes32"
        }
      ],
      "outputs": [
        {
          "name": "payout",
          "type": "uint256",
          "internalType": "uint256"
        }
      ],
      "stateMutability": "nonpayable"
    },
    {
      "type": "function",
      "name": "unresolvable",
      "inputs": [],
      "outputs": [
        {
          "name": "",
          "type": "bytes",
          "internalType": "bytes"
        }
      ],
      "stateMutability": "view"
    },
    {
      "type": "event",
      "name": "MarketAsserted",
      "inputs": [
        {
          "name": "marketId",
          "type": "bytes32",
          "indexed": true,
          "internalType": "bytes32"
        },
        {
          "name": "assertedOutcome",
          "type": "string",
          "indexed": false,
          "internalType": "string"
        },
        {
          "name": "assertionId",
          "type": "bytes32",
          "indexed": true,
          "internalType": "bytes32"
        }
      ],
      "anonymous": false
    },
    {
      "type": "event",
      "name": "MarketInitialized",
      "inputs": [
        {
          "name": "marketId",
          "type": "bytes32",
          "indexed": true,
          "internalType": "bytes32"
        },
        {
          "name": "outcome1",
          "type": "string",
          "indexed": false,
          "internalType": "string"
        },
        {
          "name": "outcome2",
          "type": "string",
          "indexed": false,
          "internalType": "string"
        },
        {
          "name": "description",
          "type": "string",
          "indexed": false,
          "internalType": "string"
        },
        {
          "name": "outcome1Token",
          "type": "address",
          "indexed": false,
          "internalType": "address"
        },
        {
          "name": "outcome2Token",
          "type": "address",
          "indexed": false,
          "internalType": "address"
        },
        {
          "name": "reward",
          "type": "uint256",
          "indexed": false,
          "internalType": "uint256"
        },
        {
          "name": "requiredBond",
          "type": "uint256",
          "indexed": false,
          "internalType": "uint256"
        }
      ],
      "anonymous": false
    },
    {
      "type": "event",
      "name": "MarketResolved",
      "inputs": [
        {
          "name": "marketId",
          "type": "bytes32",
          "indexed": true,
          "internalType": "bytes32"
        }
      ],
      "anonymous": false
    },
    {
      "type": "event",
      "name": "TokensCreated",
      "inputs": [
        {
          "name": "marketId",
          "type": "bytes32",
          "indexed": true,
          "internalType": "bytes32"
        },
        {
          "name": "account",
          "type": "address",
          "indexed": true,
          "internalType": "address"
        },
        {
          "name": "tokensCreated",
          "type": "uint256",
          "indexed": false,
          "internalType": "uint256"
        }
      ],
      "anonymous": false
    },
    {
      "type": "event",
      "name": "TokensRedeemed",
      "inputs": [
        {
          "name": "marketId",
          "type": "bytes32",
          "indexed": true,
          "internalType": "bytes32"
        },
        {
          "name": "account",
          "type": "address",
          "indexed": true,
          "internalType": "address"
        },
        {
          "name": "tokensRedeemed",
          "type": "uint256",
          "indexed": false,
          "internalType": "uint256"
        }
      ],
      "anonymous": false
    },
    {
      "type": "event",
      "name": "TokensSettled",
      "inputs": [
        {
          "name": "marketId",
          "type": "bytes32",
          "indexed": true,
          "internalType": "bytes32"
        },
        {
          "name": "account",
          "type": "address",
          "indexed": true,
          "internalType": "address"
        },
        {
          "name": "payout",
          "type": "uint256",
          "indexed": false,
          "internalType": "uint256"
        },
        {
          "name": "outcome1Tokens",
          "type": "uint256",
          "indexed": false,
          "internalType": "uint256"
        },
        {
          "name": "outcome2Tokens",
          "type": "uint256",
          "indexed": false,
          "internalType": "uint256"
        }
      ],
      "anonymous": false
    }
  ],
  "bytecode": {
    "object": "0x6101006040523480156200001257600080fd5b5060405162004ed438038062004ed4833981016040819052620000359162000242565b6001600160a01b0383166080526200004c62000190565b604051631d1d5b3960e11b81526001600160a01b0384811660048301529190911690633a3ab67290602401602060405180830381865afa15801562000095573d6000803e3d6000fd5b505050506040513d601f19601f82011682018060405250810190620000bb91906200028c565b6200010c5760405162461bcd60e51b815260206004820152601460248201527f556e737570706f727465642063757272656e6379000000000000000000000000604482015260640160405180910390fd5b6001600160a01b0380831660a052811660c08190526040805163d509b01760e01b8152905163d509b017916004808201926020929091908290030181865afa1580156200015d573d6000803e3d6000fd5b505050506040513d601f19601f82011682018060405250810190620001839190620002b7565b60e05250620002ef915050565b6080516040516302abf57960e61b81527f436f6c6c61746572616c57686974656c6973740000000000000000000000000060048201526000916001600160a01b03169063aafd5e4090602401602060405180830381865afa158015620001fa573d6000803e3d6000fd5b505050506040513d601f19601f82011682018060405250810190620002209190620002d1565b905090565b80516001600160a01b03811681146200023d57600080fd5b919050565b6000806000606084860312156200025857600080fd5b620002638462000225565b9250620002736020850162000225565b9150620002836040850162000225565b90509250925092565b6000602082840312156200029f57600080fd5b81518015158114620002b057600080fd5b9392505050565b600060208284031215620002ca57600080fd5b5051919050565b600060208284031215620002e457600080fd5b620002b08262000225565b60805160a05160c05160e051614b496200038b6000396000818161037c01526120030152600081816101fe015281816105c60152818161076001528181611c660152611fa50152600081816103a40152818161059b015281816107070152818161073e01528181610d6f0152818161116b015281816112190152818161162e01528181611d220152611fdf015260006102c40152614b496000f3fe60806040523480156200001157600080fd5b50600436106200012d5760003560e01c8063b0772d0b11620000af578063d4107645116200007a578063d4107645146200030c578063d448a4ec1462000362578063d509b0171462000376578063e5a6b10f146200039e578063f1b156b214620003c657600080fd5b8063b0772d0b1462000280578063b75d4e24146200029a578063b9a3c84c14620002be578063c3c95c7b14620002e657600080fd5b80637564912b11620000fc5780637564912b14620001ca5780638921a61414620001f85780639d2edf4614620002395780639d5bacfd1462000252578063acd98e29146200026957600080fd5b80630880c65a1462000132578063231880241462000176578063565429a8146200019c5780635cb1cc0b14620001b3575b600080fd5b6200015e6040518060400160405280600c81526020016b556e7265736f6c7661626c6560a01b81525081565b6040516200016d919062002536565b60405180910390f35b6200018d620001873660046200254b565b620003dd565b6040519081526020016200016d565b6200018d620001ad36600462002610565b620003ff565b6200018d620001c43660046200265b565b6200081e565b620001e1620001db3660046200254b565b62000e20565b6040516200016d99989796959493929190620026ff565b620002207f000000000000000000000000000000000000000000000000000000000000000081565b6040516001600160a01b0390911681526020016200016d565b620002506200024a36600462002788565b6200102c565b005b620002506200026336600462002788565b620011d0565b6200018d6200027a3660046200254b565b6200136d565b6200028a620016a3565b6040516200016d92919062002868565b620002a4611c2081565b60405167ffffffffffffffff90911681526020016200016d565b620002207f000000000000000000000000000000000000000000000000000000000000000081565b620002fd620002f73660046200254b565b62001a0e565b6040516200016d919062002906565b620003426200031d3660046200254b565b600160208190526000918252604090912080549101546001600160a01b039091169082565b604080516001600160a01b0390931683526020830191909152016200016d565b62000250620003733660046200254b565b50565b6200018d7f000000000000000000000000000000000000000000000000000000000000000081565b620002207f000000000000000000000000000000000000000000000000000000000000000081565b62000250620003d73660046200292a565b62001c5b565b60028181548110620003ee57600080fd5b600091825260209091200154905081565b600082815260208190526040812060028101546001600160a01b0316620004435760405162461bcd60e51b81526004016200043a906200295d565b60405180910390fd5b825160208401206001820154156200049e5760405162461bcd60e51b815260206004820152601c60248201527f417373657274696f6e20616374697665206f72207265736f6c7665640000000060448201526064016200043a565b81600601604051620004b19190620029c8565b6040518091039020811480620004e0575081600701604051620004d59190620029c8565b604051809103902081145b806200052f575060408051808201909152600c81526b556e7265736f6c7661626c6560a01b6020909101527fffa5c42fda42ac0bea9ca62d68dcc08a4b371f06b6e71afb99dee2ce276cbe4e81145b6200057d5760405162461bcd60e51b815260206004820152601860248201527f496e76616c6964206173736572746564206f7574636f6d65000000000000000060448201526064016200043a565b60018201819055604051634360af3d60e01b81526001600160a01b037f0000000000000000000000000000000000000000000000000000000000000000811660048301526000917f000000000000000000000000000000000000000000000000000000000000000090911690634360af3d90602401602060405180830381865afa15801562000610573d6000803e3d6000fd5b505050506040513d601f19601f8201168201806040525081019062000636919062002a46565b90506000818460050154116200064d578162000653565b83600501545b90506000620006f7878660080180546200066d906200298c565b80601f01602080910402602001604051908101604052809291908181526020018280546200069b906200298c565b8015620006ec5780601f10620006c057610100808354040283529160200191620006ec565b820191906000526020600020905b815481529060010190602001808311620006ce57829003601f168201915b505050505062001dbb565b9050620007306001600160a01b037f00000000000000000000000000000000000000000000000000000000000000001633308562001df6565b620007866001600160a01b037f0000000000000000000000000000000000000000000000000000000000000000167f00000000000000000000000000000000000000000000000000000000000000008462001e69565b62000792818362001f8b565b60408051808201825233815260208082018c81526000858152600192839052849020925183546001600160a01b0319166001600160a01b039091161783555191015551909650869089907fc55c01025649b2056980da18d75125fed301d8a2f7cf93d2151fab07bfe2a492906200080b908b9062002536565b60405180910390a3505050505092915050565b600080865111620008685760405162461bcd60e51b8152602060048201526013602482015272456d707479206669727374206f7574636f6d6560681b60448201526064016200043a565b6000855111620008b25760405162461bcd60e51b8152602060048201526014602482015273456d707479207365636f6e64206f7574636f6d6560601b60448201526064016200043a565b8480519060200120868051906020012003620009095760405162461bcd60e51b81526020600482015260156024820152744f7574636f6d657320617265207468652073616d6560581b60448201526064016200043a565b6000845111620009505760405162461bcd60e51b815260206004820152601160248201527022b6b83a3c903232b9b1b934b83a34b7b760791b60448201526064016200043a565b43846040516020016200096592919062002a60565b60408051601f1981840301815291815281516020928301206000818152928390529120600201549091506001600160a01b031615620009df5760405162461bcd60e51b81526020600482015260156024820152744d61726b657420616c72656164792065786973747360581b60448201526064016200043a565b600086604051602001620009f4919062002a7b565b604051602081830303815290604052601260405162000a139062002471565b62000a2092919062002aa7565b604051809103906000f08015801562000a3d573d6000803e3d6000fd5b50905060008660405160200162000a55919062002a7b565b604051602081830303815290604052601260405162000a749062002471565b62000a8192919062002aeb565b604051809103906000f08015801562000a9e573d6000803e3d6000fd5b50604051634c1d96ab60e11b81523060048201529091506001600160a01b0383169063983b2d5690602401600060405180830381600087803b15801562000ae457600080fd5b505af115801562000af9573d6000803e3d6000fd5b5050604051634c1d96ab60e11b81523060048201526001600160a01b038416925063983b2d569150602401600060405180830381600087803b15801562000b3f57600080fd5b505af115801562000b54573d6000803e3d6000fd5b5050604051637a231bdd60e11b81523060048201526001600160a01b038516925063f44637ba9150602401600060405180830381600087803b15801562000b9a57600080fd5b505af115801562000baf573d6000803e3d6000fd5b5050604051637a231bdd60e11b81523060048201526001600160a01b038416925063f44637ba9150602401600060405180830381600087803b15801562000bf557600080fd5b505af115801562000c0a573d6000803e3d6000fd5b505050506040518061012001604052806000151581526020016000801b8152602001836001600160a01b03168152602001826001600160a01b031681526020018681526020018581526020018981526020018881526020018781525060008085815260200190815260200160002060008201518160000160006101000a81548160ff0219169083151502179055506020820151816001015560408201518160020160006101000a8154816001600160a01b0302191690836001600160a01b0316021790555060608201518160030160006101000a8154816001600160a01b0302191690836001600160a01b031602179055506080820151816004015560a0820151816005015560c082015181600601908162000d27919062002b81565b5060e0820151600782019062000d3e908262002b81565b50610100820151600882019062000d56908262002b81565b50508515905062000d985762000d986001600160a01b037f00000000000000000000000000000000000000000000000000000000000000001633308862001df6565b600280546001810182556000919091527f405787fa12a823e0f2b7631cc41b3ba8828b3321ca811111fa75cd3aa3bb5ace0183905560405183907f7669fe199a3ccd4081193361fbf7ef7b3e82937c8b39c4ec55af2235be2830719062000e0d908b908b908b90889088908d908d9062002c4e565b60405180910390a2505095945050505050565b600060208190529081526040902080546001820154600283015460038401546004850154600586015460068701805460ff9097169795966001600160a01b039586169694909516949293919262000e77906200298c565b80601f016020809104026020016040519081016040528092919081815260200182805462000ea5906200298c565b801562000ef65780601f1062000eca5761010080835404028352916020019162000ef6565b820191906000526020600020905b81548152906001019060200180831162000ed857829003601f168201915b50505050509080600701805462000f0d906200298c565b80601f016020809104026020016040519081016040528092919081815260200182805462000f3b906200298c565b801562000f8c5780601f1062000f605761010080835404028352916020019162000f8c565b820191906000526020600020905b81548152906001019060200180831162000f6e57829003601f168201915b50505050509080600801805462000fa3906200298c565b80601f016020809104026020016040519081016040528092919081815260200182805462000fd1906200298c565b8015620010225780601f1062000ff65761010080835404028352916020019162001022565b820191906000526020600020905b8154815290600101906020018083116200100457829003601f168201915b5050505050905089565b600082815260208190526040902060028101546001600160a01b0316620010675760405162461bcd60e51b81526004016200043a906200295d565b600281015460405163079cc67960e41b8152336004820152602481018490526001600160a01b03909116906379cc6790906044016020604051808303816000875af1158015620010bb573d6000803e3d6000fd5b505050506040513d601f19601f82011682018060405250810190620010e1919062002cbd565b50600381015460405163079cc67960e41b8152336004820152602481018490526001600160a01b03909116906379cc6790906044016020604051808303816000875af115801562001136573d6000803e3d6000fd5b505050506040513d601f19601f820116820180604052508101906200115c919062002cbd565b50620011936001600160a01b037f00000000000000000000000000000000000000000000000000000000000000001633846200207b565b604051828152339084907f48bc562be531fa6322b3cb3a9333ca19d2e3c63c1793fcb5ce885d02d6e0226e906020015b60405180910390a3505050565b600082815260208190526040902060028101546001600160a01b03166200120b5760405162461bcd60e51b81526004016200043a906200295d565b620012426001600160a01b037f00000000000000000000000000000000000000000000000000000000000000001633308562001df6565b60028101546040516340c10f1960e01b8152336004820152602481018490526001600160a01b03909116906340c10f19906044016020604051808303816000875af115801562001296573d6000803e3d6000fd5b505050506040513d601f19601f82011682018060405250810190620012bc919062002cbd565b5060038101546040516340c10f1960e01b8152336004820152602481018490526001600160a01b03909116906340c10f19906044016020604051808303816000875af115801562001311573d6000803e3d6000fd5b505050506040513d601f19601f8201168201806040525081019062001337919062002cbd565b50604051828152339084907fa1a00dd4222724941c9d085479758183928d765e55583d239c414b0f09c5da4b90602001620011c3565b6000818152602081905260408120805460ff16620013c45760405162461bcd60e51b815260206004820152601360248201527213585c9ad95d081b9bdd081c995cdbdb1d9959606a1b60448201526064016200043a565b60028101546040516370a0823160e01b81523360048201526000916001600160a01b0316906370a0823190602401602060405180830381865afa15801562001410573d6000803e3d6000fd5b505050506040513d601f19601f8201168201806040525081019062001436919062002a46565b60038301546040516370a0823160e01b81523360048201529192506000916001600160a01b03909116906370a0823190602401602060405180830381865afa15801562001487573d6000803e3d6000fd5b505050506040513d601f19601f82011682018060405250810190620014ad919062002a46565b905082600601604051620014c29190620029c8565b6040518091039020836001015403620014de578193506200152a565b82600701604051620014f19190620029c8565b60405180910390208360010154036200150d578093506200152a565b60026200151b828462002cf3565b62001527919062002d09565b93505b600283015460405163079cc67960e41b8152336004820152602481018490526001600160a01b03909116906379cc6790906044016020604051808303816000875af11580156200157e573d6000803e3d6000fd5b505050506040513d601f19601f82011682018060405250810190620015a4919062002cbd565b50600383015460405163079cc67960e41b8152336004820152602481018390526001600160a01b03909116906379cc6790906044016020604051808303816000875af1158015620015f9573d6000803e3d6000fd5b505050506040513d601f19601f820116820180604052508101906200161f919062002cbd565b50620016566001600160a01b037f00000000000000000000000000000000000000000000000000000000000000001633866200207b565b6040805185815260208101849052908101829052339086907f25ffdbe909949aba86fccc6c8a3f5d94d7ab78bc67a3cc1327908845235874eb9060600160405180910390a3505050919050565b606080600060028054905067ffffffffffffffff811115620016c957620016c962002565565b6040519080825280602002602001820160405280156200170657816020015b620016f26200247f565b815260200190600190039081620016e85790505b50905060005b600254811015620019ad576000806002838154811062001730576200173062002d2c565b600091825260208083209091015483528281019390935260409182019020815161012081018352815460ff161515815260018201549381019390935260028101546001600160a01b03908116928401929092526003810154909116606083015260048101546080830152600581015460a083015260068101805460c084019190620017bb906200298c565b80601f0160208091040260200160405190810160405280929190818152602001828054620017e9906200298c565b80156200183a5780601f106200180e576101008083540402835291602001916200183a565b820191906000526020600020905b8154815290600101906020018083116200181c57829003601f168201915b5050505050815260200160078201805462001855906200298c565b80601f016020809104026020016040519081016040528092919081815260200182805462001883906200298c565b8015620018d45780601f10620018a857610100808354040283529160200191620018d4565b820191906000526020600020905b815481529060010190602001808311620018b657829003601f168201915b50505050508152602001600882018054620018ef906200298c565b80601f01602080910402602001604051908101604052809291908181526020018280546200191d906200298c565b80156200196e5780601f1062001942576101008083540402835291602001916200196e565b820191906000526020600020905b8154815290600101906020018083116200195057829003601f168201915b5050505050815250508282815181106200198c576200198c62002d2c565b60200260200101819052508080620019a49062002d42565b9150506200170c565b5060028181805480602002602001604051908101604052809291908181526020018280548015620019fe57602002820191906000526020600020905b815481526020019060010190808311620019e9575b5050505050915092509250509091565b62001a186200247f565b60008281526020818152604091829020825161012081018452815460ff161515815260018201549281019290925260028101546001600160a01b03908116938301939093526003810154909216606082015260048201546080820152600582015460a082015260068201805491929160c08401919062001a98906200298c565b80601f016020809104026020016040519081016040528092919081815260200182805462001ac6906200298c565b801562001b175780601f1062001aeb5761010080835404028352916020019162001b17565b820191906000526020600020905b81548152906001019060200180831162001af957829003601f168201915b5050505050815260200160078201805462001b32906200298c565b80601f016020809104026020016040519081016040528092919081815260200182805462001b60906200298c565b801562001bb15780601f1062001b855761010080835404028352916020019162001bb1565b820191906000526020600020905b81548152906001019060200180831162001b9357829003601f168201915b5050505050815260200160088201805462001bcc906200298c565b80601f016020809104026020016040519081016040528092919081815260200182805462001bfa906200298c565b801562001c4b5780601f1062001c1f5761010080835404028352916020019162001c4b565b820191906000526020600020905b81548152906001019060200180831162001c2d57829003601f168201915b5050505050815250509050919050565b336001600160a01b037f0000000000000000000000000000000000000000000000000000000000000000161462001cc65760405162461bcd60e51b815260206004820152600e60248201526d139bdd08185d5d1a1bdc9a5e995960921b60448201526064016200043a565b60008281526001602081815260408084209092015483528290529020811562001d8f57805460ff1916600117815560048101541562001d4d57600083815260016020526040902054600482015462001d4d916001600160a01b037f00000000000000000000000000000000000000000000000000000000000000008116929116906200207b565b600083815260016020819052604080832090910154905190917fe9146184308c5e4b8f243047cc6f81dce88e004d7980502e123b02f887ab514491a262001d97565b600060018201555b50506000908152600160208190526040822080546001600160a01b03191681550155565b606062001dc842620020ad565b838360405160200162001dde9392919062002d5e565b60405160208183030381529060405290505b92915050565b6040516001600160a01b038085166024830152831660448201526064810182905262001e639085906323b872dd60e01b906084015b60408051601f198184030181529190526020810180516001600160e01b03166001600160e01b031990931692909217909152620021f5565b50505050565b80158062001ee75750604051636eb1769f60e11b81523060048201526001600160a01b03838116602483015284169063dd62ed3e90604401602060405180830381865afa15801562001ebf573d6000803e3d6000fd5b505050506040513d601f19601f8201168201806040525081019062001ee5919062002a46565b155b62001f545760405162461bcd60e51b815260206004820152603660248201527f5361666545524332303a20617070726f76652066726f6d206e6f6e2d7a65726f60448201527520746f206e6f6e2d7a65726f20616c6c6f77616e636560501b60648201526084016200043a565b6040516001600160a01b03831660248201526044810182905262001f8690849063095ea7b360e01b9060640162001e2b565b505050565b604051636457c97960e01b81526000906001600160a01b037f00000000000000000000000000000000000000000000000000000000000000001690636457c979906200202e908690339030908790611c20907f0000000000000000000000000000000000000000000000000000000000000000908b907f000000000000000000000000000000000000000000000000000000000000000090859060040162002e3b565b6020604051808303816000875af11580156200204e573d6000803e3d6000fd5b505050506040513d601f19601f8201168201806040525081019062002074919062002a46565b9392505050565b6040516001600160a01b03831660248201526044810182905262001f8690849063a9059cbb60e01b9060640162001e2b565b606081600003620020d55750506040805180820190915260018152600360fc1b602082015290565b8160005b8115620021055780620020ec8162002d42565b9150620020fd9050600a8362002d09565b9150620020d9565b60008167ffffffffffffffff81111562002123576200212362002565565b6040519080825280601f01601f1916602001820160405280156200214e576020820181803683370190505b509050815b8515620021ec576200216760018262002eab565b9050600062002178600a8862002d09565b6200218590600a62002ec1565b62002191908862002eab565b6200219e90603062002ee3565b905060008160f81b905080848481518110620021be57620021be62002d2c565b60200101906001600160f81b031916908160001a905350620021e2600a8962002d09565b9750505062002153565b50949350505050565b60006200224c826040518060400160405280602081526020017f5361666545524332303a206c6f772d6c6576656c2063616c6c206661696c6564815250856001600160a01b0316620022ce9092919063ffffffff16565b80519091501562001f8657808060200190518101906200226d919062002cbd565b62001f865760405162461bcd60e51b815260206004820152602a60248201527f5361666545524332303a204552433230206f7065726174696f6e20646964206e6044820152691bdd081cdd58d8d9595960b21b60648201526084016200043a565b6060620022df8484600085620022e7565b949350505050565b6060824710156200234a5760405162461bcd60e51b815260206004820152602660248201527f416464726573733a20696e73756666696369656e742062616c616e636520666f6044820152651c8818d85b1b60d21b60648201526084016200043a565b600080866001600160a01b0316858760405162002368919062002eff565b60006040518083038185875af1925050503d8060008114620023a7576040519150601f19603f3d011682016040523d82523d6000602084013e620023ac565b606091505b5091509150620023bf87838387620023ca565b979650505050505050565b606083156200243e57825160000362002436576001600160a01b0385163b620024365760405162461bcd60e51b815260206004820152601d60248201527f416464726573733a2063616c6c20746f206e6f6e2d636f6e747261637400000060448201526064016200043a565b5081620022df565b620022df8383815115620024555781518083602001fd5b8060405162461bcd60e51b81526004016200043a919062002536565b611bf68062002f1e83390190565b6040518061012001604052806000151581526020016000801916815260200160006001600160a01b0316815260200160006001600160a01b0316815260200160008152602001600081526020016060815260200160608152602001606081525090565b60005b83811015620024ff578181015183820152602001620024e5565b50506000910152565b6000815180845262002522816020860160208601620024e2565b601f01601f19169290920160200192915050565b60208152600062002074602083018462002508565b6000602082840312156200255e57600080fd5b5035919050565b634e487b7160e01b600052604160045260246000fd5b600082601f8301126200258d57600080fd5b813567ffffffffffffffff80821115620025ab57620025ab62002565565b604051601f8301601f19908116603f01168101908282118183101715620025d657620025d662002565565b81604052838152866020858801011115620025f057600080fd5b836020870160208301376000602085830101528094505050505092915050565b600080604083850312156200262457600080fd5b82359150602083013567ffffffffffffffff8111156200264357600080fd5b62002651858286016200257b565b9150509250929050565b600080600080600060a086880312156200267457600080fd5b853567ffffffffffffffff808211156200268d57600080fd5b6200269b89838a016200257b565b96506020880135915080821115620026b257600080fd5b620026c089838a016200257b565b95506040880135915080821115620026d757600080fd5b50620026e6888289016200257b565b9598949750949560608101359550608001359392505050565b8915158152602081018990526001600160a01b038881166040830152871660608201526080810186905260a0810185905261012060c082018190526000906200274b8382018762002508565b905082810360e084015262002761818662002508565b905082810361010084015262002778818562002508565b9c9b505050505050505050505050565b600080604083850312156200279c57600080fd5b50508035926020909101359150565b8051151582526000610120602083015160208501526040830151620027db60408601826001600160a01b03169052565b506060830151620027f760608601826001600160a01b03169052565b506080830151608085015260a083015160a085015260c08301518160c0860152620028258286018262002508565b91505060e083015184820360e086015262002841828262002508565b91505061010080840151858303828701526200285e838262002508565b9695505050505050565b604080825283519082018190526000906020906060840190828701845b82811015620028a35781518452928401929084019060010162002885565b50505083810382850152845180825282820190600581901b8301840187850160005b83811015620028f757601f19868403018552620028e4838351620027ab565b94870194925090860190600101620028c5565b50909998505050505050505050565b602081526000620020746020830184620027ab565b80151581146200037357600080fd5b600080604083850312156200293e57600080fd5b82359150602083013562002952816200291b565b809150509250929050565b60208082526015908201527413585c9ad95d08191bd95cc81b9bdd08195e1a5cdd605a1b604082015260600190565b600181811c90821680620029a157607f821691505b602082108103620029c257634e487b7160e01b600052602260045260246000fd5b50919050565b6000808354620029d8816200298c565b60018281168015620029f3576001811462002a095762002a3a565b60ff198416875282151583028701945062002a3a565b8760005260208060002060005b8581101562002a315781548a82015290840190820162002a16565b50505082870194505b50929695505050505050565b60006020828403121562002a5957600080fd5b5051919050565b828152604060208201526000620022df604083018462002508565b6000825162002a8f818460208701620024e2565b65102a37b5b2b760d11b920191825250600601919050565b60608152600062002abc606083018562002508565b8281036020840152600381526213cc5560ea1b60208201526040810191505060ff831660408301529392505050565b60608152600062002b00606083018562002508565b8281036020840152600381526213cc9560ea1b60208201526040810191505060ff831660408301529392505050565b601f82111562001f8657600081815260208120601f850160051c8101602086101562002b585750805b601f850160051c820191505b8181101562002b795782815560010162002b64565b505050505050565b815167ffffffffffffffff81111562002b9e5762002b9e62002565565b62002bb68162002baf84546200298c565b8462002b2f565b602080601f83116001811462002bee576000841562002bd55750858301515b600019600386901b1c1916600185901b17855562002b79565b600085815260208120601f198616915b8281101562002c1f5788860151825594840194600190910190840162002bfe565b508582101562002c3e5787850151600019600388901b60f8161c191681555b5050505050600190811b01905550565b60e08152600062002c6360e083018a62002508565b828103602084015262002c77818a62002508565b9050828103604084015262002c8d818962002508565b6001600160a01b0397881660608501529590961660808301525060a081019290925260c090910152949350505050565b60006020828403121562002cd057600080fd5b815162002074816200291b565b634e487b7160e01b600052601160045260246000fd5b8082018082111562001df05762001df062002cdd565b60008262002d2757634e487b7160e01b600052601260045260246000fd5b500490565b634e487b7160e01b600052603260045260246000fd5b60006001820162002d575762002d5762002cdd565b5060010190565b7f4173206f6620617373657274696f6e2074696d657374616d702000000000000081526000845162002d9881601a850160208901620024e2565b7f2c20746865206465736372696265642070726564696374696f6e206d61726b65601a918401918201526d03a1037baba31b7b6b29034b99d160951b603a820152845162002dee816048840160208901620024e2565b7f2e20546865206d61726b6574206465736372697074696f6e2069733a2000000060489290910191820152835162002e2e816065840160208801620024e2565b0160650195945050505050565b600061012080835262002e518184018d62002508565b6001600160a01b039b8c166020850152998b1660408401525050958816606087015267ffffffffffffffff9490941660808601529190951660a084015260c083019490945260e08201939093526101000191909152919050565b8181038181111562001df05762001df062002cdd565b600081600019048311821515161562002ede5762002ede62002cdd565b500290565b60ff818116838216019081111562001df05762001df062002cdd565b6000825162002f13818460208701620024e2565b919091019291505056fe60806040523480156200001157600080fd5b5060405162001bf638038062001bf6833981016040819052620000349162000563565b8282600362000044838262000676565b50600462000053828262000676565b50506006805460ff191660ff8416179055506200007360008033620000a5565b6200009060015b60408051600080825260208201909252620001f5565b6200009c60026200007a565b50505062000796565b826000808281526005602052604090206001015460ff166002811115620000d057620000d062000742565b14620001235760405162461bcd60e51b815260206004820152601e60248201527f43616e6e6f74207573652061207072652d6578697374696e6720726f6c65000060448201526064015b60405180910390fd5b60008481526005602052604090206001808201805460ff1916828002179055508381556200016160028201846200033b602090811b62000a3717901c565b60008481526005602052604081206001015460ff1660028111156200018a576200018a62000742565b03620001ee5760405162461bcd60e51b815260206004820152603c602482015260008051602062001bd683398151915260448201527f20746f206d616e61676520616e206578636c757369766520726f6c650000000060648201526084016200011a565b5050505050565b826000808281526005602052604090206001015460ff16600281111562000220576200022062000742565b146200026f5760405162461bcd60e51b815260206004820152601e60248201527f43616e6e6f74207573652061207072652d6578697374696e6720726f6c65000060448201526064016200011a565b600084815260056020908152604090912060018101805460ff1916600217905584815590620002ae906003830190859062000a416200034b821b17901c565b60008481526005602052604081206001015460ff166002811115620002d757620002d762000742565b03620001ee5760405162461bcd60e51b8152602060048201526038602482015260008051602062001bd683398151915260448201527f20746f206d616e61676520612073686172656420726f6c65000000000000000060648201526084016200011a565b620003478282620003a0565b5050565b60005b81518110156200039b57620003868383838151811062000372576200037262000758565b60200260200101516200042160201b60201c565b8062000392816200076e565b9150506200034e565b505050565b6001600160a01b038116620004045760405162461bcd60e51b815260206004820152602360248201527f43616e6e6f742073657420616e206578636c757369766520726f6c6520746f2060448201526203078360ec1b60648201526084016200011a565b81546001600160a01b0319166001600160a01b0391909116179055565b6001600160a01b038116620004795760405162461bcd60e51b815260206004820152601f60248201527f43616e6e6f74206164642030783020746f20612073686172656420726f6c650060448201526064016200011a565b6001600160a01b0316600090815260209190915260409020805460ff19166001179055565b634e487b7160e01b600052604160045260246000fd5b600082601f830112620004c657600080fd5b81516001600160401b0380821115620004e357620004e36200049e565b604051601f8301601f19908116603f011681019082821181831017156200050e576200050e6200049e565b816040528381526020925086838588010111156200052b57600080fd5b600091505b838210156200054f578582018301518183018401529082019062000530565b600093810190920192909252949350505050565b6000806000606084860312156200057957600080fd5b83516001600160401b03808211156200059157600080fd5b6200059f87838801620004b4565b94506020860151915080821115620005b657600080fd5b50620005c586828701620004b4565b925050604084015160ff81168114620005dd57600080fd5b809150509250925092565b600181811c90821680620005fd57607f821691505b6020821081036200061e57634e487b7160e01b600052602260045260246000fd5b50919050565b601f8211156200039b57600081815260208120601f850160051c810160208610156200064d5750805b601f850160051c820191505b818110156200066e5782815560010162000659565b505050505050565b81516001600160401b038111156200069257620006926200049e565b620006aa81620006a38454620005e8565b8462000624565b602080601f831160018114620006e25760008415620006c95750858301515b600019600386901b1c1916600185901b1785556200066e565b600085815260208120601f198616915b828110156200071357888601518255948401946001909101908401620006f2565b5085821015620007325787850151600019600388901b60f8161c191681555b5050505050600190811b01905550565b634e487b7160e01b600052602160045260246000fd5b634e487b7160e01b600052603260045260246000fd5b6000600182016200078f57634e487b7160e01b600052601160045260246000fd5b5060010190565b61143080620007a66000396000f3fe608060405234801561001057600080fd5b506004361061014d5760003560e01c806374d0a676116100c3578063a9059cbb1161007c578063a9059cbb146102be578063aaa14ca3146102d1578063ab3545e5146102e4578063d97c05be1461030f578063dd62ed3e14610322578063f44637ba1461033557600080fd5b806374d0a6761461025757806379cc67901461026a5780637cdc1cb91461027d57806395d89b4114610290578063983b2d5614610298578063a457c2d7146102ab57600080fd5b8063395093511161011557806339509351146101cd57806340c10f19146101e057806342966c68146101f35780636be7658b1461020857806370a082311461021b57806373cc802a1461024457600080fd5b806306fdde0314610152578063095ea7b31461017057806318160ddd1461019357806323b872dd146101a5578063313ce567146101b8575b600080fd5b61015a610348565b60405161016791906110d6565b60405180910390f35b61018361017e366004611140565b6103da565b6040519015158152602001610167565b6002545b604051908152602001610167565b6101836101b336600461116a565b6103f4565b60065460405160ff9091168152602001610167565b6101836101db366004611140565b610418565b6101836101ee366004611140565b61043a565b6102066102013660046111a6565b610477565b005b6102066102163660046111bf565b6104ad565b6101976102293660046111eb565b6001600160a01b031660009081526020819052604090205490565b6102066102523660046111eb565b610583565b6102066102653660046111bf565b610591565b610183610278366004611140565b610667565b61018361028b3660046111bf565b61069b565b61015a610760565b6102066102a63660046111eb565b61076f565b6101836102b9366004611140565b61077b565b6101836102cc366004611140565b6107f6565b6102066102df3660046111a6565b610804565b6102f76102f23660046111a6565b6108c0565b6040516001600160a01b039091168152602001610167565b61020661031d3660046111bf565b61092c565b61019761033036600461120d565b610a02565b6102066103433660046111eb565b610a2d565b60606003805461035790611237565b80601f016020809104026020016040519081016040528092919081815260200182805461038390611237565b80156103d05780601f106103a5576101008083540402835291602001916103d0565b820191906000526020600020905b8154815290600101906020018083116103b357829003601f168201915b5050505050905090565b6000336103e8818585610a87565b60019150505b92915050565b600033610402858285610bab565b61040d858585610c25565b506001949350505050565b6000336103e881858561042b8383610a02565b6104359190611281565b610a87565b60006001610448813361069b565b61046d5760405162461bcd60e51b8152600401610464906112aa565b60405180910390fd5b6103e88484610dc9565b6002610483813361069b565b61049f5760405162461bcd60e51b8152600401610464906112aa565b6104a93383610e88565b5050565b81600260008281526005602052604090206001015460ff1660028111156104d6576104d6611294565b146104f35760405162461bcd60e51b8152600401610464906112ec565b600083815260056020526040902054839061050e903361069b565b61052a5760405162461bcd60e51b815260040161046490611338565b60008481526005602052604090206105459060030184610fba565b60405133906001600160a01b0385169086907feb3e33034c392e69263b04ec0fa376dc12784a41b6676c7f31b936cbc0fbb5af90600090a450505050565b61058e60008261092c565b50565b81600260008281526005602052604090206001015460ff1660028111156105ba576105ba611294565b146105d75760405162461bcd60e51b8152600401610464906112ec565b60008381526005602052604090205483906105f2903361069b565b61060e5760405162461bcd60e51b815260040161046490611338565b60008481526005602052604090206106299060030184610fdc565b60405133906001600160a01b0385169086907f63502af7324ff6db91ab38f8236a648727d9385ea6c782073dd4882d8a61a48f90600090a450505050565b60006002610675813361069b565b6106915760405162461bcd60e51b8152600401610464906112aa565b6103e88484610e88565b600082815260056020526040812060018082015460ff1660028111156106c3576106c3611294565b036106e45760028101546001600160a01b038481169116145b9150506103ee565b6002600182015460ff1660028111156106ff576106ff611294565b03610727576001600160a01b038316600090815260038201602052604090205460ff166106dc565b60405162461bcd60e51b815260206004820152600e60248201526d125b9d985b1a59081c9bdb19525960921b6044820152606401610464565b60606004805461035790611237565b61058e60015b82610591565b600033816107898286610a02565b9050838110156107e95760405162461bcd60e51b815260206004820152602560248201527f45524332303a2064656372656173656420616c6c6f77616e63652062656c6f77604482015264207a65726f60d81b6064820152608401610464565b61040d8286868403610a87565b6000336103e8818585610c25565b80600260008281526005602052604090206001015460ff16600281111561082d5761082d611294565b1461084a5760405162461bcd60e51b8152600401610464906112ec565b81610855813361069b565b6108715760405162461bcd60e51b8152600401610464906112aa565b600083815260056020526040902061088c9060030133610fba565b6040513390819085907feb3e33034c392e69263b04ec0fa376dc12784a41b6676c7f31b936cbc0fbb5af90600090a4505050565b600081600160008281526005602052604090206001015460ff1660028111156108eb576108eb611294565b146109085760405162461bcd60e51b81526004016104649061137c565b6000838152600560205260409020600201546001600160a01b031691505b50919050565b81600160008281526005602052604090206001015460ff16600281111561095557610955611294565b146109725760405162461bcd60e51b81526004016104649061137c565b600083815260056020526040902054839061098d903361069b565b6109a95760405162461bcd60e51b815260040161046490611338565b60008481526005602052604090206109c49060020184611057565b60405133906001600160a01b0385169086907f3b855c56b409b671c7112789d022675eb639d0bcb8896f1b6197c132f799e74690600090a450505050565b6001600160a01b03918216600090815260016020908152604080832093909416825291909152205490565b61058e6002610775565b6104a98282611057565b60005b8151811015610a8257610a7083838381518110610a6357610a636113cb565b6020026020010151610fdc565b80610a7a816113e1565b915050610a44565b505050565b6001600160a01b038316610ae95760405162461bcd60e51b8152602060048201526024808201527f45524332303a20617070726f76652066726f6d20746865207a65726f206164646044820152637265737360e01b6064820152608401610464565b6001600160a01b038216610b4a5760405162461bcd60e51b815260206004820152602260248201527f45524332303a20617070726f766520746f20746865207a65726f206164647265604482015261737360f01b6064820152608401610464565b6001600160a01b0383811660008181526001602090815260408083209487168084529482529182902085905590518481527f8c5be1e5ebec7d5bd14f71427d1e84f3dd0314c0f7b2291e5b200ac8c7c3b925910160405180910390a3505050565b6000610bb78484610a02565b90506000198114610c1f5781811015610c125760405162461bcd60e51b815260206004820152601d60248201527f45524332303a20696e73756666696369656e7420616c6c6f77616e63650000006044820152606401610464565b610c1f8484848403610a87565b50505050565b6001600160a01b038316610c895760405162461bcd60e51b815260206004820152602560248201527f45524332303a207472616e736665722066726f6d20746865207a65726f206164604482015264647265737360d81b6064820152608401610464565b6001600160a01b038216610ceb5760405162461bcd60e51b815260206004820152602360248201527f45524332303a207472616e7366657220746f20746865207a65726f206164647260448201526265737360e81b6064820152608401610464565b6001600160a01b03831660009081526020819052604090205481811015610d635760405162461bcd60e51b815260206004820152602660248201527f45524332303a207472616e7366657220616d6f756e7420657863656564732062604482015265616c616e636560d01b6064820152608401610464565b6001600160a01b03848116600081815260208181526040808320878703905593871680835291849020805487019055925185815290927fddf252ad1be2c89b69c2b068fc378daa952ba7f163c4a11628f55a4df523b3ef910160405180910390a3610c1f565b6001600160a01b038216610e1f5760405162461bcd60e51b815260206004820152601f60248201527f45524332303a206d696e7420746f20746865207a65726f2061646472657373006044820152606401610464565b8060026000828254610e319190611281565b90915550506001600160a01b038216600081815260208181526040808320805486019055518481527fddf252ad1be2c89b69c2b068fc378daa952ba7f163c4a11628f55a4df523b3ef910160405180910390a35050565b6001600160a01b038216610ee85760405162461bcd60e51b815260206004820152602160248201527f45524332303a206275726e2066726f6d20746865207a65726f206164647265736044820152607360f81b6064820152608401610464565b6001600160a01b03821660009081526020819052604090205481811015610f5c5760405162461bcd60e51b815260206004820152602260248201527f45524332303a206275726e20616d6f756e7420657863656564732062616c616e604482015261636560f01b6064820152608401610464565b6001600160a01b0383166000818152602081815260408083208686039055600280548790039055518581529192917fddf252ad1be2c89b69c2b068fc378daa952ba7f163c4a11628f55a4df523b3ef910160405180910390a3505050565b6001600160a01b0316600090815260209190915260409020805460ff19169055565b6001600160a01b0381166110325760405162461bcd60e51b815260206004820152601f60248201527f43616e6e6f74206164642030783020746f20612073686172656420726f6c65006044820152606401610464565b6001600160a01b0316600090815260209190915260409020805460ff19166001179055565b6001600160a01b0381166110b95760405162461bcd60e51b815260206004820152602360248201527f43616e6e6f742073657420616e206578636c757369766520726f6c6520746f2060448201526203078360ec1b6064820152608401610464565b81546001600160a01b0319166001600160a01b0391909116179055565b600060208083528351808285015260005b81811015611103578581018301518582016040015282016110e7565b506000604082860101526040601f19601f8301168501019250505092915050565b80356001600160a01b038116811461113b57600080fd5b919050565b6000806040838503121561115357600080fd5b61115c83611124565b946020939093013593505050565b60008060006060848603121561117f57600080fd5b61118884611124565b925061119660208501611124565b9150604084013590509250925092565b6000602082840312156111b857600080fd5b5035919050565b600080604083850312156111d257600080fd5b823591506111e260208401611124565b90509250929050565b6000602082840312156111fd57600080fd5b61120682611124565b9392505050565b6000806040838503121561122057600080fd5b61122983611124565b91506111e260208401611124565b600181811c9082168061124b57607f821691505b60208210810361092657634e487b7160e01b600052602260045260246000fd5b634e487b7160e01b600052601160045260246000fd5b808201808211156103ee576103ee61126b565b634e487b7160e01b600052602160045260246000fd5b60208082526022908201527f53656e64657220646f6573206e6f7420686f6c6420726571756972656420726f6040820152616c6560f01b606082015260800190565b6020808252602c908201527f4d7573742062652063616c6c6564206f6e20616e20696e697469616c697a656460408201526b2053686172656420726f6c6560a01b606082015260800190565b60208082526024908201527f43616e206f6e6c792062652063616c6c6564206279206120726f6c65206d616e60408201526330b3b2b960e11b606082015260800190565b6020808252602f908201527f4d7573742062652063616c6c6564206f6e20616e20696e697469616c697a656460408201526e204578636c757369766520726f6c6560881b606082015260800190565b634e487b7160e01b600052603260045260246000fd5b6000600182016113f3576113f361126b565b506001019056fea264697066735822122011644e77c362e6d825ab2804b196fef8de52c59ac6104626b1f75ab81c07312764736f6c63430008100033417474656d7074656420746f2075736520616e20696e76616c696420726f6c65a26469706673582212201d07ba5576db40f71b771ff6798094d97bd984e8c690ced58fe9211ab53f6d8764736f6c63430008100033",
    "linkReferences": {}
  },
  "methodIdentifiers": {
    "allMarketIds(uint256)": "23188024",
    "assertMarket(bytes32,string)": "565429a8",
    "assertedMarkets(bytes32)": "d4107645",
    "assertionDisputedCallback(bytes32)": "d448a4ec",
    "assertionLiveness()": "b75d4e24",
    "assertionResolvedCallback(bytes32,bool)": "f1b156b2",
    "createOutcomeTokens(bytes32,uint256)": "9d5bacfd",
    "currency()": "e5a6b10f",
    "defaultIdentifier()": "d509b017",
    "finder()": "b9a3c84c",
    "getAllMarkets()": "b0772d0b",
    "getMarket(bytes32)": "c3c95c7b",
    "initializeMarket(string,string,string,uint256,uint256)": "5cb1cc0b",
    "markets(bytes32)": "7564912b",
    "oo()": "8921a614",
    "redeemOutcomeTokens(bytes32,uint256)": "9d2edf46",
    "settleOutcomeTokens(bytes32)": "acd98e29",
    "unresolvable()": "0880c65a"
  },
  "id": 20
}